{
  "contractName": "BattleShips",
  "abi": [
    {
      "constant": true,
      "inputs": [],
      "name": "lastY",
      "outputs": [
        {
          "name": "",
          "type": "uint8"
        }
      ],
      "payable": false,
      "stateMutability": "view",
      "type": "function"
    },
    {
      "constant": true,
      "inputs": [],
      "name": "lastUpdateHeight",
      "outputs": [
        {
          "name": "",
          "type": "uint256"
        }
      ],
      "payable": false,
      "stateMutability": "view",
      "type": "function"
    },
    {
      "constant": true,
      "inputs": [],
      "name": "turn",
      "outputs": [
        {
          "name": "",
          "type": "uint8"
        }
      ],
      "payable": false,
      "stateMutability": "view",
      "type": "function"
    },
    {
      "constant": true,
      "inputs": [
        {
          "name": "",
          "type": "uint256"
        }
      ],
      "name": "boards",
      "outputs": [
        {
          "name": "committed",
          "type": "bool"
        }
      ],
      "payable": false,
      "stateMutability": "view",
      "type": "function"
    },
    {
      "constant": true,
      "inputs": [],
      "name": "gameState",
      "outputs": [
        {
          "name": "",
          "type": "uint8"
        }
      ],
      "payable": false,
      "stateMutability": "view",
      "type": "function"
    },
    {
      "constant": true,
      "inputs": [],
      "name": "winner",
      "outputs": [
        {
          "name": "",
          "type": "address"
        }
      ],
      "payable": false,
      "stateMutability": "view",
      "type": "function"
    },
    {
      "constant": true,
      "inputs": [],
      "name": "lastX",
      "outputs": [
        {
          "name": "",
          "type": "uint8"
        }
      ],
      "payable": false,
      "stateMutability": "view",
      "type": "function"
    },
    {
      "constant": true,
      "inputs": [
        {
          "name": "",
          "type": "uint256"
        }
      ],
      "name": "players",
      "outputs": [
        {
          "name": "",
          "type": "address"
        }
      ],
      "payable": false,
      "stateMutability": "view",
      "type": "function"
    },
    {
      "inputs": [
        {
          "name": "player0",
          "type": "address"
        },
        {
          "name": "player1",
          "type": "address"
        }
      ],
      "payable": false,
      "stateMutability": "nonpayable",
      "type": "constructor"
    },
    {
      "anonymous": false,
      "inputs": [
        {
          "indexed": true,
          "name": "player",
          "type": "address"
        }
      ],
      "name": "BoardCommit",
      "type": "event"
    },
    {
      "constant": false,
      "inputs": [
        {
          "name": "x",
          "type": "uint8"
        },
        {
          "name": "y",
          "type": "uint8"
        }
      ],
      "name": "attack",
      "outputs": [],
      "payable": false,
      "stateMutability": "nonpayable",
      "type": "function"
    },
    {
      "constant": false,
      "inputs": [
        {
          "name": "fieldRandomness",
          "type": "uint128"
        },
        {
          "name": "shipRandomness",
          "type": "uint128"
        },
        {
          "name": "shipIdx",
          "type": "uint8"
        },
        {
          "name": "shipx1",
          "type": "uint8"
        },
        {
          "name": "shipy1",
          "type": "uint8"
        },
        {
          "name": "shipx2",
          "type": "uint8"
        },
        {
          "name": "shipy2",
          "type": "uint8"
        }
      ],
      "name": "reveal",
      "outputs": [],
      "payable": false,
      "stateMutability": "nonpayable",
      "type": "function"
    },
    {
      "constant": false,
      "inputs": [
        {
          "name": "randomness",
          "type": "uint128"
        },
        {
          "name": "ship",
          "type": "bool"
        }
      ],
      "name": "reveal",
      "outputs": [],
      "payable": false,
      "stateMutability": "nonpayable",
      "type": "function"
    },
    {
      "constant": false,
      "inputs": [],
      "name": "claimWin",
      "outputs": [],
      "payable": false,
      "stateMutability": "nonpayable",
      "type": "function"
    },
    {
      "constant": false,
      "inputs": [
        {
          "name": "_player",
          "type": "uint8"
        }
      ],
      "name": "isCommitted",
      "outputs": [
        {
          "name": "",
          "type": "bool"
        }
      ],
      "payable": false,
      "stateMutability": "nonpayable",
      "type": "function"
    },
    {
      "constant": false,
      "inputs": [
        {
          "name": "shipCommitments",
          "type": "bytes32[10]"
        }
      ],
      "name": "commitBoard",
      "outputs": [],
      "payable": false,
      "stateMutability": "nonpayable",
      "type": "function"
    },
    {
      "constant": false,
      "inputs": [
        {
          "name": "idx",
          "type": "uint8"
        },
        {
          "name": "shipFieldRandomness",
          "type": "uint128[20]"
        },
        {
          "name": "shipRandomness",
          "type": "uint128[10]"
        },
        {
          "name": "shipX1",
          "type": "uint8[10]"
        },
        {
          "name": "shipY1",
          "type": "uint8[10]"
        },
        {
          "name": "shipX2",
          "type": "uint8[10]"
        },
        {
          "name": "shipY2",
          "type": "uint8[10]"
        }
      ],
      "name": "checkBoard",
      "outputs": [],
      "payable": false,
      "stateMutability": "nonpayable",
      "type": "function"
    },
    {
      "constant": false,
      "inputs": [
        {
          "name": "shipIdx1",
          "type": "uint8"
        },
        {
          "name": "shipIdx2",
          "type": "uint8"
        }
      ],
      "name": "adjacentOrOverlapping",
      "outputs": [],
      "payable": false,
      "stateMutability": "nonpayable",
      "type": "function"
    },
    {
      "constant": false,
      "inputs": [],
      "name": "timeout",
      "outputs": [],
      "payable": false,
      "stateMutability": "nonpayable",
      "type": "function"
    },
    {
      "constant": false,
      "inputs": [],
      "name": "finishGame",
      "outputs": [],
      "payable": false,
      "stateMutability": "nonpayable",
      "type": "function"
    }
  ],
  "bytecode": "0x60806040523480156200001157600080fd5b50604051604080620037c8833981018060405281019080805190602001909291908051906020019092919050505081600160006002811015156200005157fe5b0160006101000a81548173ffffffffffffffffffffffffffffffffffffffff021916908373ffffffffffffffffffffffffffffffffffffffff16021790555080600180600281101515620000a157fe5b0160006101000a81548173ffffffffffffffffffffffffffffffffffffffff021916908373ffffffffffffffffffffffffffffffffffffffff16021790555060008060016101000a81548160ff02191690836004811115620000ff57fe5b021790555050506136b280620001166000396000f3006080604052600436106100fc576000357c0100000000000000000000000000000000000000000000000000000000900463ffffffff16806314760012146101015780633f0453b2146101325780634c6cba8f146101ce5780634c90c7e01461021957806370dea79a14610244578063808984ba1461025b57806380f991381461029857806381c8378c146102d55780638b299903146104255780639563db1f146104565780639a7083f91461049e5780639fecb69f146104e3578063b5ffd817146104fa578063b700583f14610511578063d1f9c24d14610564578063dfbf53ae1461059d578063f6cfa006146105f4578063f71d96cb14610625575b600080fd5b34801561010d57600080fd5b50610116610692565b604051808260ff1660ff16815260200191505060405180910390f35b34801561013e57600080fd5b506101cc60048036038101908080356fffffffffffffffffffffffffffffffff16906020019092919080356fffffffffffffffffffffffffffffffff169060200190929190803560ff169060200190929190803560ff169060200190929190803560ff169060200190929190803560ff169060200190929190803560ff1690602001909291905050506106a6565b005b3480156101da57600080fd5b5061021760048036038101908080356fffffffffffffffffffffffffffffffff169060200190929190803515159060200190929190505050610f06565b005b34801561022557600080fd5b5061022e6112cc565b6040518082815260200191505060405180910390f35b34801561025057600080fd5b506102596112d3565b005b34801561026757600080fd5b50610296600480360381019080803560ff169060200190929190803560ff169060200190929190505050611433565b005b3480156102a457600080fd5b506102d3600480360381019080803560ff169060200190929190803560ff1690602001909291905050506115b0565b005b3480156102e157600080fd5b50610423600480360381019080803560ff169060200190929190806102800190601480602002604051908101604052809291908260146020028082843782019150505050509192919290806101400190600a806020026040519081016040528092919082600a6020028082843782019150505050509192919290806101400190600a806020026040519081016040528092919082600a6020028082843782019150505050509192919290806101400190600a806020026040519081016040528092919082600a6020028082843782019150505050509192919290806101400190600a806020026040519081016040528092919082600a6020028082843782019150505050509192919290806101400190600a806020026040519081016040528092919082600a60200280828437820191505050505091929192905050506120ed565b005b34801561043157600080fd5b5061043a6131b7565b604051808260ff1660ff16815260200191505060405180910390f35b34801561046257600080fd5b50610484600480360381019080803560ff1690602001909291905050506131c9565b604051808215151515815260200191505060405180910390f35b3480156104aa57600080fd5b506104c9600480360381019080803590602001909291905050506131f9565b604051808215151515815260200191505060405180910390f35b3480156104ef57600080fd5b506104f8613229565b005b34801561050657600080fd5b5061050f613365565b005b34801561051d57600080fd5b50610562600480360381019080806101400190600a806020026040519081016040528092919082600a602002808284378201915050505050919291929050505061351d565b005b34801561057057600080fd5b50610579613569565b6040518082600481111561058957fe5b60ff16815260200191505060405180910390f35b3480156105a957600080fd5b506105b261357c565b604051808273ffffffffffffffffffffffffffffffffffffffff1673ffffffffffffffffffffffffffffffffffffffff16815260200191505060405180910390f35b34801561060057600080fd5b506106096135a2565b604051808260ff1660ff16815260200191505060405180910390f35b34801561063157600080fd5b50610650600480360381019080803590602001909291905050506135b6565b604051808273ffffffffffffffffffffffffffffffffffffffff1673ffffffffffffffffffffffffffffffffffffffff16815260200191505060405180910390f35b6101bf60019054906101000a900460ff1681565b60016000809054906101000a900460ff1660ff166002811015156106c657fe5b0160009054906101000a900473ffffffffffffffffffffffffffffffffffffffff1673ffffffffffffffffffffffffffffffffffffffff163373ffffffffffffffffffffffffffffffffffffffff1614151561072157600080fd5b600280600481111561072f57fe5b600060019054906101000a900460ff16600481111561074a57fe5b14151561075657600080fd5b60046000809054906101000a900460ff1660ff1660028110151561077657fe5b60dd02016000016101bf60009054906101000a900460ff1660ff16600a8110151561079d57fe5b601402016101bf60019054906101000a900460ff1660ff16600a811015156107c157fe5b60020201600001546000191688600160405160200180836fffffffffffffffffffffffffffffffff166fffffffffffffffffffffffffffffffff1670010000000000000000000000000000000002815260100182151515157f0100000000000000000000000000000000000000000000000000000000000000028152600101925050506040516020818303038152906040526040518082805190602001908083835b6020831015156108885780518252602082019150602081019050602083039250610863565b6001836020036101000a038019825116818451168082178552505050505050905001915050604051809103902060001916148015610a83575060046000809054906101000a900460ff1660ff166002811015156108e157fe5b60dd020160c8018660ff16600a811015156108f857fe5b600202016000015460001916878686868660405160200180866fffffffffffffffffffffffffffffffff166fffffffffffffffffffffffffffffffff167001000000000000000000000000000000000281526010018560ff1660ff167f01000000000000000000000000000000000000000000000000000000000000000281526001018460ff1660ff167f01000000000000000000000000000000000000000000000000000000000000000281526001018360ff1660ff167f01000000000000000000000000000000000000000000000000000000000000000281526001018260ff1660ff167f0100000000000000000000000000000000000000000000000000000000000000028152600101955050505050506040516020818303038152906040526040518082805190602001908083835b602083101515610a505780518252602082019150602081019050602083039250610a2b565b6001836020036101000a038019825116818451168082178552505050505050905001915050604051809103902060001916145b8015610aa557508460ff166101bf60009054906101000a900460ff1660ff1610155b8015610ac757508260ff166101bf60009054906101000a900460ff1660ff1611155b8015610ae957508360ff166101bf60019054906101000a900460ff1660ff1610155b8015610b0b57508160ff166101bf60019054906101000a900460ff1660ff1611155b8015610b2c57508260ff168560ff161480610b2b57508160ff168460ff16145b5b15610ee157600160046000809054906101000a900460ff1660ff16600281101515610b5357fe5b60dd02016000016101bf60009054906101000a900460ff1660ff16600a81101515610b7a57fe5b601402016101bf60019054906101000a900460ff1660ff16600a81101515610b9e57fe5b6002020160010160106101000a81548160ff0219169083151502179055508760046000809054906101000a900460ff1660ff16600281101515610bdd57fe5b60dd02016000016101bf60009054906101000a900460ff1660ff16600a81101515610c0457fe5b601402016101bf60019054906101000a900460ff1660ff16600a81101515610c2857fe5b6002020160010160006101000a8154816fffffffffffffffffffffffffffffffff02191690836fffffffffffffffffffffffffffffffff1602179055508660046000809054906101000a900460ff1660ff16600281101515610c8657fe5b60dd020160c8018760ff16600a81101515610c9d57fe5b6002020160010160006101000a8154816fffffffffffffffffffffffffffffffff02191690836fffffffffffffffffffffffffffffffff1602179055508460046000809054906101000a900460ff1660ff16600281101515610cfb57fe5b60dd020160c8018760ff16600a81101515610d1257fe5b6002020160010160106101000a81548160ff021916908360ff1602179055508360046000809054906101000a900460ff1660ff16600281101515610d5257fe5b60dd020160c8018760ff16600a81101515610d6957fe5b6002020160010160116101000a81548160ff021916908360ff1602179055508260046000809054906101000a900460ff1660ff16600281101515610da957fe5b60dd020160c8018760ff16600a81101515610dc057fe5b6002020160010160126101000a81548160ff021916908360ff1602179055508160046000809054906101000a900460ff1660ff16600281101515610e0057fe5b60dd020160c8018760ff16600a81101515610e1757fe5b6002020160010160136101000a81548160ff021916908360ff160217905550600160046000809054906101000a900460ff1660ff16600281101515610e5857fe5b60dd020160c8018760ff16600a81101515610e6f57fe5b6002020160010160146101000a81548160ff02191690831515021790555060016000809054906101000a900460ff16036000806101000a81548160ff021916908360ff1602179055506001600060016101000a81548160ff02191690836004811115610ed757fe5b0217905550610efc565b610efb60016000809054906101000a900460ff16036135eb565b5b5050505050505050565b60016000809054906101000a900460ff1660ff16600281101515610f2657fe5b0160009054906101000a900473ffffffffffffffffffffffffffffffffffffffff1673ffffffffffffffffffffffffffffffffffffffff163373ffffffffffffffffffffffffffffffffffffffff16141515610f8157600080fd5b6002806004811115610f8f57fe5b600060019054906101000a900460ff166004811115610faa57fe5b141515610fb657600080fd5b60046000809054906101000a900460ff1660ff16600281101515610fd657fe5b60dd02016000016101bf60009054906101000a900460ff1660ff16600a81101515610ffd57fe5b601402016101bf60019054906101000a900460ff1660ff16600a8110151561102157fe5b600202016000015460001916838360405160200180836fffffffffffffffffffffffffffffffff166fffffffffffffffffffffffffffffffff1670010000000000000000000000000000000002815260100182151515157f0100000000000000000000000000000000000000000000000000000000000000028152600101925050506040516020818303038152906040526040518082805190602001908083835b6020831015156110e757805182526020820191506020810190506020830392506110c2565b6001836020036101000a03801982511681845116808217855250505050505090500191505060405180910390206000191614156112ac578160046000809054906101000a900460ff1660ff1660028110151561113f57fe5b60dd02016000016101bf60009054906101000a900460ff1660ff16600a8110151561116657fe5b601402016101bf60019054906101000a900460ff1660ff16600a8110151561118a57fe5b6002020160010160106101000a81548160ff0219169083151502179055508260046000809054906101000a900460ff1660ff166002811015156111c957fe5b60dd02016000016101bf60009054906101000a900460ff1660ff16600a811015156111f057fe5b601402016101bf60019054906101000a900460ff1660ff16600a8110151561121457fe5b6002020160010160006101000a8154816fffffffffffffffffffffffffffffffff02191690836fffffffffffffffffffffffffffffffff16021790555081156112835760016000809054906101000a900460ff16036000806101000a81548160ff021916908360ff1602179055505b6001600060016101000a81548160ff021916908360048111156112a257fe5b02179055506112c7565b6112c660016000809054906101000a900460ff16036135eb565b5b505050565b6101be5481565b600160006002811015156112e357fe5b0160009054906101000a900473ffffffffffffffffffffffffffffffffffffffff1673ffffffffffffffffffffffffffffffffffffffff163373ffffffffffffffffffffffffffffffffffffffff161480611399575060018060028110151561134857fe5b0160009054906101000a900473ffffffffffffffffffffffffffffffffffffffff1673ffffffffffffffffffffffffffffffffffffffff163373ffffffffffffffffffffffffffffffffffffffff16145b15156113a457600080fd5b600160048111156113b157fe5b600060019054906101000a900460ff1660048111156113cc57fe5b14806113fd5750600260048111156113e057fe5b600060019054906101000a900460ff1660048111156113fb57fe5b145b151561140857600080fd5b60146101be5401431115611431576114306000809054906101000a900460ff166001036135eb565b5b565b60016000809054906101000a900460ff1660ff1660028110151561145357fe5b0160009054906101000a900473ffffffffffffffffffffffffffffffffffffffff1673ffffffffffffffffffffffffffffffffffffffff163373ffffffffffffffffffffffffffffffffffffffff161415156114ae57600080fd5b60018060048111156114bc57fe5b600060019054906101000a900460ff1660048111156114d757fe5b1415156114e357600080fd5b8260ff166000111580156114fa5750600a8360ff16105b801561150a57508160ff16600011155b80156115195750600a8260ff16105b151561152457600080fd5b816101bf60016101000a81548160ff021916908360ff160217905550826101bf60006101000a81548160ff021916908360ff1602179055506000809054906101000a900460ff166001036000806101000a81548160ff021916908360ff1602179055506002600060016101000a81548160ff021916908360048111156115a657fe5b0217905550505050565b600080600160006002811015156115c357fe5b0160009054906101000a900473ffffffffffffffffffffffffffffffffffffffff1673ffffffffffffffffffffffffffffffffffffffff163373ffffffffffffffffffffffffffffffffffffffff161480611679575060018060028110151561162857fe5b0160009054906101000a900473ffffffffffffffffffffffffffffffffffffffff1673ffffffffffffffffffffffffffffffffffffffff163373ffffffffffffffffffffffffffffffffffffffff16145b151561168457600080fd5b60048081111561169057fe5b600060019054906101000a900460ff1660048111156116ab57fe5b141515156116b857600080fd5b600191506001806002811015156116cb57fe5b0160009054906101000a900473ffffffffffffffffffffffffffffffffffffffff1673ffffffffffffffffffffffffffffffffffffffff163373ffffffffffffffffffffffffffffffffffffffff16141561172557600091505b6003600481111561173257fe5b600060019054906101000a900460ff16600481111561174d57fe5b14806117d9575060048260ff1660028110151561176657fe5b60dd020160c8018460ff16600a8110151561177d57fe5b6002020160010160149054906101000a900460ff1680156117d8575060048260ff166002811015156117ab57fe5b60dd020160c8018360ff16600a811015156117c257fe5b6002020160010160149054906101000a900460ff165b5b15156117e457600080fd5b600160048360ff166002811015156117f857fe5b60dd020160c8018560ff16600a8110151561180f57fe5b6002020160010160109054906101000a900460ff160360ff1660048360ff1660028110151561183a57fe5b60dd020160c8018460ff16600a8110151561185157fe5b6002020160010160109054906101000a900460ff1660ff16101580156118fa5750600160048360ff1660028110151561188657fe5b60dd020160c8018560ff16600a8110151561189d57fe5b6002020160010160109054906101000a900460ff160160ff1660048360ff166002811015156118c857fe5b60dd020160c8018460ff16600a811015156118df57fe5b6002020160010160109054906101000a900460ff1660ff1611155b80156119895750600160048360ff1660028110151561191557fe5b60dd020160c8018560ff16600a8110151561192c57fe5b6002020160010160119054906101000a900460ff160360ff1660048360ff1660028110151561195757fe5b60dd020160c8018460ff16600a8110151561196e57fe5b6002020160010160119054906101000a900460ff1660ff1610155b8015611a185750600160048360ff166002811015156119a457fe5b60dd020160c8018560ff16600a811015156119bb57fe5b6002020160010160119054906101000a900460ff160160ff1660048360ff166002811015156119e657fe5b60dd020160c8018460ff16600a811015156119fd57fe5b6002020160010160119054906101000a900460ff1660ff1611155b90508080611c565750600160048360ff16600281101515611a3557fe5b60dd020160c8018560ff16600a81101515611a4c57fe5b6002020160010160129054906101000a900460ff160360ff1660048360ff16600281101515611a7757fe5b60dd020160c8018460ff16600a81101515611a8e57fe5b6002020160010160109054906101000a900460ff1660ff1610158015611b375750600160048360ff16600281101515611ac357fe5b60dd020160c8018560ff16600a81101515611ada57fe5b6002020160010160129054906101000a900460ff160160ff1660048360ff16600281101515611b0557fe5b60dd020160c8018460ff16600a81101515611b1c57fe5b6002020160010160109054906101000a900460ff1660ff1611155b8015611bc65750600160048360ff16600281101515611b5257fe5b60dd020160c8018560ff16600a81101515611b6957fe5b6002020160010160139054906101000a900460ff160360ff1660048360ff16600281101515611b9457fe5b60dd020160c8018460ff16600a81101515611bab57fe5b6002020160010160119054906101000a900460ff1660ff1610155b8015611c555750600160048360ff16600281101515611be157fe5b60dd020160c8018560ff16600a81101515611bf857fe5b6002020160010160139054906101000a900460ff160160ff1660048360ff16600281101515611c2357fe5b60dd020160c8018460ff16600a81101515611c3a57fe5b6002020160010160119054906101000a900460ff1660ff1611155b5b90508080611e945750600160048360ff16600281101515611c7357fe5b60dd020160c8018560ff16600a81101515611c8a57fe5b6002020160010160109054906101000a900460ff160360ff1660048360ff16600281101515611cb557fe5b60dd020160c8018460ff16600a81101515611ccc57fe5b6002020160010160129054906101000a900460ff1660ff1610158015611d755750600160048360ff16600281101515611d0157fe5b60dd020160c8018560ff16600a81101515611d1857fe5b6002020160010160109054906101000a900460ff160160ff1660048360ff16600281101515611d4357fe5b60dd020160c8018460ff16600a81101515611d5a57fe5b6002020160010160129054906101000a900460ff1660ff1611155b8015611e045750600160048360ff16600281101515611d9057fe5b60dd020160c8018560ff16600a81101515611da757fe5b6002020160010160119054906101000a900460ff160360ff1660048360ff16600281101515611dd257fe5b60dd020160c8018460ff16600a81101515611de957fe5b6002020160010160139054906101000a900460ff1660ff1610155b8015611e935750600160048360ff16600281101515611e1f57fe5b60dd020160c8018560ff16600a81101515611e3657fe5b6002020160010160119054906101000a900460ff160160ff1660048360ff16600281101515611e6157fe5b60dd020160c8018460ff16600a81101515611e7857fe5b6002020160010160139054906101000a900460ff1660ff1611155b5b905080806120d25750600160048360ff16600281101515611eb157fe5b60dd020160c8018560ff16600a81101515611ec857fe5b6002020160010160129054906101000a900460ff160360ff1660048360ff16600281101515611ef357fe5b60dd020160c8018460ff16600a81101515611f0a57fe5b6002020160010160129054906101000a900460ff1660ff1610158015611fb35750600160048360ff16600281101515611f3f57fe5b60dd020160c8018560ff16600a81101515611f5657fe5b6002020160010160129054906101000a900460ff160160ff1660048360ff16600281101515611f8157fe5b60dd020160c8018460ff16600a81101515611f9857fe5b6002020160010160129054906101000a900460ff1660ff1611155b80156120425750600160048360ff16600281101515611fce57fe5b60dd020160c8018560ff16600a81101515611fe557fe5b6002020160010160139054906101000a900460ff160360ff1660048360ff1660028110151561201057fe5b60dd020160c8018460ff16600a8110151561202757fe5b6002020160010160139054906101000a900460ff1660ff1610155b80156120d15750600160048360ff1660028110151561205d57fe5b60dd020160c8018560ff16600a8110151561207457fe5b6002020160010160139054906101000a900460ff160160ff1660048360ff1660028110151561209f57fe5b60dd020160c8018460ff16600a811015156120b657fe5b6002020160010160139054906101000a900460ff1660ff1611155b5b905080156120e7576120e6826001036135eb565b5b50505050565b60008060008060008090505b600a8160ff1610156131a85760048c60ff1660028110151561211757fe5b60dd020160c8018160ff16600a8110151561212e57fe5b6002020160010160149054906101000a900460ff16151561319b576000945060009350868160ff16600a8110151561216257fe5b602002015160ff16898260ff16600a8110151561217b57fe5b602002015160ff16111580156121c15750858160ff16600a8110151561219d57fe5b602002015160ff16888260ff16600a811015156121b657fe5b602002015160ff1611155b80156122365750868160ff16600a811015156121d957fe5b602002015160ff16898260ff16600a811015156121f257fe5b602002015160ff1614806122355750858160ff16600a8110151561221257fe5b602002015160ff16888260ff16600a8110151561222b57fe5b602002015160ff16145b5b151561224d576122488c6001036135eb565b6131a9565b60048c60ff1660028110151561225f57fe5b60dd020160c8018160ff16600a8110151561227657fe5b6002020160000154600019168a8260ff16600a8110151561229357fe5b60200201518a8360ff16600a811015156122a957fe5b60200201518a8460ff16600a811015156122bf57fe5b60200201518a8560ff16600a811015156122d557fe5b60200201518a8660ff16600a811015156122eb57fe5b602002015160405160200180866fffffffffffffffffffffffffffffffff166fffffffffffffffffffffffffffffffff167001000000000000000000000000000000000281526010018560ff1660ff167f01000000000000000000000000000000000000000000000000000000000000000281526001018460ff1660ff167f01000000000000000000000000000000000000000000000000000000000000000281526001018360ff1660ff167f01000000000000000000000000000000000000000000000000000000000000000281526001018260ff1660ff167f0100000000000000000000000000000000000000000000000000000000000000028152600101955050505050506040516020818303038152906040526040518082805190602001908083835b6020831015156124375780518252602082019150602081019050602083039250612412565b6001836020036101000a0380198251168184511680821785525050505050509050019150506040518091039020600019161415156124805761247b8c6001036135eb565b6131a9565b60048160ff1610156127165760048c60ff1660028110151561249e57fe5b60dd0201600001898260ff16600a811015156124b657fe5b602002015160ff16600a811015156124ca57fe5b60140201888260ff16600a811015156124df57fe5b602002015160ff16600a811015156124f357fe5b6002020160010160119054906101000a900460ff16806126fb5750868160ff16600a8110151561251f57fe5b602002015160ff16898260ff16600a8110151561253857fe5b602002015160ff1614801561257c5750858160ff16600a8110151561255957fe5b602002015160ff16888260ff16600a8110151561257257fe5b602002015160ff16145b80156126f9575060048c60ff1660028110151561259557fe5b60dd0201600001898260ff16600a811015156125ad57fe5b602002015160ff16600a811015156125c157fe5b60140201888260ff16600a811015156125d657fe5b602002015160ff16600a811015156125ea57fe5b6002020160000154600019168b8260ff1660148110151561260757fe5b6020020151600160405160200180836fffffffffffffffffffffffffffffffff166fffffffffffffffffffffffffffffffff1670010000000000000000000000000000000002815260100182151515157f0100000000000000000000000000000000000000000000000000000000000000028152600101925050506040516020818303038152906040526040518082805190602001908083835b6020831015156126c657805182526020820191506020810190506020830392506126a1565b6001836020036101000a038019825116818451168082178552505050505050905001915050604051809103902060001916145b155b156127115761270c8c6001036135eb565b6131a9565b613003565b60078160ff161015612a1757888160ff16600a8110151561273357fe5b602002015192505b868160ff16600a8110151561274c57fe5b602002015160ff168360ff161115156129f457878160ff16600a8110151561277057fe5b602002015191505b858160ff16600a8110151561278957fe5b602002015160ff168260ff161115156129e757848060010195505060048c60ff166002811015156127b657fe5b60dd02016000018360ff16600a811015156127cd57fe5b601402018260ff16600a811015156127e157fe5b6002020160010160119054906101000a900460ff161561286d57838060010194505060048c60ff1660028110151561281557fe5b60dd02016000018360ff16600a8110151561282c57fe5b601402018260ff16600a8110151561284057fe5b6002020160010160109054906101000a900460ff16151561286c576128678c6001036135eb565b6131a9565b5b60048c60ff1660028110151561287f57fe5b60dd02016000018360ff16600a8110151561289657fe5b601402018260ff16600a811015156128aa57fe5b6002020160000154600019168b86600260048503026004010160ff166014811015156128d257fe5b6020020151600160405160200180836fffffffffffffffffffffffffffffffff166fffffffffffffffffffffffffffffffff1670010000000000000000000000000000000002815260100182151515157f0100000000000000000000000000000000000000000000000000000000000000028152600101925050506040516020818303038152906040526040518082805190602001908083835b602083101515612991578051825260208201915060208101905060208303925061296c565b6001836020036101000a0380198251168184511680821785525050505050509050019150506040518091039020600019161415156129da576129d58c6001036135eb565b6131a9565b8180600101925050612778565b828060010193505061273b565b60028560ff16141515612a1257612a0d8c6001036135eb565b6131a9565b613002565b60098160ff161015612d1857888160ff16600a81101515612a3457fe5b602002015192505b868160ff16600a81101515612a4d57fe5b602002015160ff168360ff16111515612cf557878160ff16600a81101515612a7157fe5b602002015191505b858160ff16600a81101515612a8a57fe5b602002015160ff168260ff16111515612ce857848060010195505060048c60ff16600281101515612ab757fe5b60dd02016000018360ff16600a81101515612ace57fe5b601402018260ff16600a81101515612ae257fe5b6002020160010160119054906101000a900460ff1615612b6e57838060010194505060048c60ff16600281101515612b1657fe5b60dd02016000018360ff16600a81101515612b2d57fe5b601402018260ff16600a81101515612b4157fe5b6002020160010160109054906101000a900460ff161515612b6d57612b688c6001036135eb565b6131a9565b5b60048c60ff16600281101515612b8057fe5b60dd02016000018360ff16600a81101515612b9757fe5b601402018260ff16600a81101515612bab57fe5b6002020160000154600019168b8660036007850302600a010160ff16601481101515612bd357fe5b6020020151600160405160200180836fffffffffffffffffffffffffffffffff166fffffffffffffffffffffffffffffffff1670010000000000000000000000000000000002815260100182151515157f0100000000000000000000000000000000000000000000000000000000000000028152600101925050506040516020818303038152906040526040518082805190602001908083835b602083101515612c925780518252602082019150602081019050602083039250612c6d565b6001836020036101000a038019825116818451168082178552505050505050905001915050604051809103902060001916141515612cdb57612cd68c6001036135eb565b6131a9565b8180600101925050612a79565b8280600101935050612a3c565b60038560ff16141515612d1357612d0e8c6001036135eb565b6131a9565b613001565b888160ff16600a81101515612d2957fe5b602002015192505b868160ff16600a81101515612d4257fe5b602002015160ff168360ff16111515612fe257878160ff16600a81101515612d6657fe5b602002015191505b858160ff16600a81101515612d7f57fe5b602002015160ff168260ff16111515612fd557848060010195505060048c60ff16600281101515612dac57fe5b60dd02016000018360ff16600a81101515612dc357fe5b601402018260ff16600a81101515612dd757fe5b6002020160010160119054906101000a900460ff1615612e6357838060010194505060048c60ff16600281101515612e0b57fe5b60dd02016000018360ff16600a81101515612e2257fe5b601402018260ff16600a81101515612e3657fe5b6002020160010160109054906101000a900460ff161515612e6257612e5d8c6001036135eb565b6131a9565b5b60048c60ff16600281101515612e7557fe5b60dd02016000018360ff16600a81101515612e8c57fe5b601402018260ff16600a81101515612ea057fe5b6002020160000154600019168b8660100160ff16601481101515612ec057fe5b6020020151600160405160200180836fffffffffffffffffffffffffffffffff166fffffffffffffffffffffffffffffffff1670010000000000000000000000000000000002815260100182151515157f0100000000000000000000000000000000000000000000000000000000000000028152600101925050506040516020818303038152906040526040518082805190602001908083835b602083101515612f7f5780518252602082019150602081019050602083039250612f5a565b6001836020036101000a038019825116818451168082178552505050505050905001915050604051809103902060001916141515612fc857612fc38c6001036135eb565b6131a9565b8180600101925050612d6e565b8280600101935050612d31565b60048560ff1614151561300057612ffb8c6001036135eb565b6131a9565b5b5b5b8460ff168460ff1614156130225761301d8c6001036135eb565b6131a9565b888160ff16600a8110151561303357fe5b602002015160048d60ff1660028110151561304a57fe5b60dd020160c8018260ff16600a8110151561306157fe5b6002020160010160106101000a81548160ff021916908360ff160217905550878160ff16600a8110151561309157fe5b602002015160048d60ff166002811015156130a857fe5b60dd020160c8018260ff16600a811015156130bf57fe5b6002020160010160116101000a81548160ff021916908360ff160217905550868160ff16600a811015156130ef57fe5b602002015160048d60ff1660028110151561310657fe5b60dd020160c8018260ff16600a8110151561311d57fe5b6002020160010160126101000a81548160ff021916908360ff160217905550858160ff16600a8110151561314d57fe5b602002015160048d60ff1660028110151561316457fe5b60dd020160c8018260ff16600a8110151561317b57fe5b6002020160010160136101000a81548160ff021916908360ff1602179055505b80806001019150506120f9565b5b505050505050505050505050565b6000809054906101000a900460ff1681565b600060048260ff166002811015156131dd57fe5b60dd020160dc0160009054906101000a900460ff169050919050565b60048160028110151561320857fe5b60dd02016000915090508060dc0160009054906101000a900460ff16905081565b6001600060028110151561323957fe5b0160009054906101000a900473ffffffffffffffffffffffffffffffffffffffff1673ffffffffffffffffffffffffffffffffffffffff163373ffffffffffffffffffffffffffffffffffffffff1614806132ef575060018060028110151561329e57fe5b0160009054906101000a900473ffffffffffffffffffffffffffffffffffffffff1673ffffffffffffffffffffffffffffffffffffffff163373ffffffffffffffffffffffffffffffffffffffff16145b15156132fa57600080fd5b600380600481111561330857fe5b600060019054906101000a900460ff16600481111561332357fe5b14151561332f57600080fd5b60146101be5401431115613362576004600060016101000a81548160ff0219169083600481111561335c57fe5b02179055505b50565b6000806001600060028110151561337857fe5b0160009054906101000a900473ffffffffffffffffffffffffffffffffffffffff1673ffffffffffffffffffffffffffffffffffffffff163373ffffffffffffffffffffffffffffffffffffffff16148061342e57506001806002811015156133dd57fe5b0160009054906101000a900473ffffffffffffffffffffffffffffffffffffffff1673ffffffffffffffffffffffffffffffffffffffff163373ffffffffffffffffffffffffffffffffffffffff16145b151561343957600080fd5b6000915060018060028110151561344c57fe5b0160009054906101000a900473ffffffffffffffffffffffffffffffffffffffff1673ffffffffffffffffffffffffffffffffffffffff163373ffffffffffffffffffffffffffffffffffffffff1614156134a657600191505b600090505b600a8160ff1610156135105760048260010360ff166002811015156134cc57fe5b60dd020160c8018160ff16600a811015156134e357fe5b6002020160010160149054906101000a900460ff16151561350357600080fd5b80806001019150506134ab565b613519826135eb565b5050565b60008090503373ffffffffffffffffffffffffffffffffffffffff167f90014d12976a9127e359e1bb9002c97bc9910b28c0f4072ec544a3375cec826760405160405180910390a25050565b600060019054906101000a900460ff1681565b600360009054906101000a900473ffffffffffffffffffffffffffffffffffffffff1681565b6101bf60009054906101000a900460ff1681565b6001816002811015156135c557fe5b016000915054906101000a900473ffffffffffffffffffffffffffffffffffffffff1681565b60018160ff166002811015156135fd57fe5b0160009054906101000a900473ffffffffffffffffffffffffffffffffffffffff16600360006101000a81548173ffffffffffffffffffffffffffffffffffffffff021916908373ffffffffffffffffffffffffffffffffffffffff1602179055506004600060016101000a81548160ff0219169083600481111561367e57fe5b0217905550505600a165627a7a723058203e1570ccb0a1cfd2a14dc9b503410edbb0cb70620c59ddf68a6744936434eb6f0029",
  "source": "pragma solidity ^0.4.24;\n\ncontract BattleShips {\n   \n    /*\n    After game is Created, both players commit to their boards\n    During the game, the state is either Attack or Reveal\n    */\n    enum GameState { Created, Attack, Reveal, WinClaimed, Finished }\n    \n    uint8 public turn; //0 if players[0] turn, 1 if players[1] turn\n    GameState public gameState;\n    \n    address[2] public players;\n    address public winner;\n    Board[2] public boards;\n    \n    uint256 public lastUpdateHeight;\n    \n    /*\n    coordinates of the last tile that has been attacked\n    */\n    uint8 public lastX;\n    uint8 public lastY;\n \n    /*\n    commitment is a hash of (randomness,ship)\n    randomness, ship are revealed during the game if Tile is hit\n    */\n    struct Tile {\n        bytes32 commitment;\n        uint128 randomness;\n        bool ship;\n        bool revealed;\n    }\n    \n    /*\n    commitment is hash of (randomness, x1, y1, x2, y2) \n    where (x1, y1) is the starting coordinate and (x2,y2) is the end coordinate\n    x1 <= x2, y1 <= y2\n    */\n    struct Ship {\n        bytes32 commitment;\n        uint128 randomness;\n        uint8 x1;\n        uint8 y1;\n        uint8 x2;\n        uint8 y2;\n        bool sunk;\n    }\n    \n    struct Board {\n        Tile[10][10] board;\n        Ship[10] ships;\n        bool committed;\n    }\n    \n    /*\n    restrict access to players\n    */ \n    modifier onlyPlayers() {\n        require(msg.sender == players[0] || msg.sender == players[1]);\n        _;\n    }\n    \n    /*\n    restrict access to player whose turn it is\n    */\n    modifier onlyPlayerTurn() {\n        require(msg.sender == players[turn]);\n        _;\n    }\n    \n    /*\n    only allow in `state`\n    */\n    modifier onlyState(GameState state) {\n        require(gameState == state);\n        _;\n    }\n    \n    event BoardCommit(address indexed player);\n\n    constructor (address player0, address player1) public {\n        players[0] = player0;\n        players[1] = player1;\n        gameState = GameState.Created;\n    }\n    \n    \n    function declareWinner(uint8 idx) internal {\n        winner = players[idx];\n        gameState = GameState.Finished;\n    }\n    \n    /*\n    attacks tile at coordinate (x,y)\n    */ \n    function attack(uint8 x, uint8 y) onlyPlayerTurn() onlyState(GameState.Attack) public {\n        require(0<=x && x<10 && 0<=y && y<10);\n        lastY = y;\n        lastX = x;\n        turn = 1 - turn;\n        gameState = GameState.Reveal;\n    }\n    \n    /*\n    reveal last attacked tile if no ship has been sunk by a hit\n    */ \n    function reveal(uint128 randomness, bool ship) onlyPlayerTurn() onlyState(GameState.Reveal) public {\n        if (keccak256(abi.encodePacked(randomness, ship)) == boards[turn].board[lastX][lastY].commitment) {\n             boards[turn].board[lastX][lastY].ship = ship;\n             boards[turn].board[lastX][lastY].randomness = randomness;\n             if (ship) {\n                 turn = turn - 1;\n             }\n             gameState = GameState.Attack;\n        } else {\n            declareWinner(turn -1);\n        }\n    }\n    \n    /*\n    reveal last attacked tile if a ship has been sunk by a hit\n    in that case, the ship also has to be revealed\n    */ \n    function reveal(uint128 fieldRandomness, uint128 shipRandomness, uint8 shipIdx, uint8 shipx1, uint8 shipy1, uint8 shipx2, uint8 shipy2) onlyPlayerTurn() onlyState(GameState.Reveal) public {\n         if (keccak256(abi.encodePacked(fieldRandomness, true)) == boards[turn].board[lastX][lastY].commitment\n                 && keccak256(abi.encodePacked(shipRandomness, shipx1, shipy1, shipx2, shipy2)) == boards[turn].ships[shipIdx].commitment\n                 && lastX >= shipx1 && lastX <= shipx2\n                 && lastY >= shipy1 && lastY <= shipy2\n                 && (shipx1 == shipx2 || shipy1 == shipy2)) {\n             boards[turn].board[lastX][lastY].ship = true;\n             boards[turn].board[lastX][lastY].randomness = fieldRandomness;\n             \n             boards[turn].ships[shipIdx].randomness = shipRandomness;\n             boards[turn].ships[shipIdx].x1 = shipx1;\n             boards[turn].ships[shipIdx].y1 = shipy1;\n             boards[turn].ships[shipIdx].x2 = shipx2;\n             boards[turn].ships[shipIdx].y2 = shipy2;\n             boards[turn].ships[shipIdx].sunk = true;\n             \n             //TODO: check that all tiles of the ship have been hit\n             \n             turn = turn - 1;\n             gameState = GameState.Attack;\n        } else {\n            declareWinner(turn -1);\n        }\n    }\n    \n    function claimWin( ) onlyPlayers() public {\n         uint8 idx = 0;\n         if(msg.sender == players[1]) {\n            idx = 1;\n         }\n         for (uint8 i = 0; i<10; i++) {\n             require(boards[1-idx].ships[i].sunk);\n         }\n         // TODO: check board of winner\n         declareWinner(idx);\n    }\n\n\n    function isCommitted(uint8 _player) public returns (bool) {\n        return boards[_player].committed;\n    }\n   \n    /* currently allows players to change the commitments to their board until the other player has also committed */\n    //function commitBoard(bytes32[10][10] boardCommitments, bytes32[10] shipCommitments) onlyPlayers onlyState(GameState.Created) public {\n    function commitBoard(bytes32[10] shipCommitments) public {//onlyPlayers onlyState(GameState.Created) public {\n        uint8 idx = 0;\n//        if(msg.sender == players[1]) {\n//            idx = 1;\n//        }\n//        for (uint8 i = 0; i<10; i++) {\n//             for (uint8 j = 0; j<10;j++) {\n//                 boards[idx].board[i][j].commitment = boardCommitments[i][j];\n//             }\n//         }\n//         for (i = 0; i<10;i++) {\n//             boards[idx].ships[i].commitment = shipCommitments[i];\n//         }\n//         boards[idx].committed = true;\n//         if (boards[0].committed && boards[1].committed) {\n//            gameState = GameState.Attack;\n//         }\n//\n        emit BoardCommit(msg.sender);\n    }\n    \n    /*\n    checks whether a player has actually placed all ships on the committed board\n    the player reveals the ship locations and the blinding factors for all commitments for tiles that contain a ship\n    */\n    function checkBoard(uint8 idx, uint128[20] shipFieldRandomness, uint128[10] shipRandomness, uint8[10] shipX1, uint8[10] shipY1, uint8[10] shipX2, uint8[10] shipY2)  public {\n        uint8 size;\n        uint8 revealed;\n        uint8 x;\n        uint8 y;\n        for (uint8 i = 0; i<10; i++) {\n            if (!boards[idx].ships[i].sunk) {\n                // if the ship has been sunk, the locations have already been checked, otherwise check that they are actually on the board\n                size = 0;\n                revealed = 0;\n                \n                // ship has to be tiles in a line, second coordinate has to be larger\n                if (!(shipX1[i] <= shipX2[i] && shipY1[i] <= shipY2[i] && (shipX1[i] == shipX2[i] || shipY1[i] == shipY2[i]))) {\n                    //cheating\n                    declareWinner(1-idx);\n                    return;\n                }\n                // check ship commitment\n                if (keccak256(abi.encodePacked(shipRandomness[i], shipX1[i], shipY1[i], shipX2[i], shipY2[i])) != boards[idx].ships[i].commitment) {\n                    //cheating\n                    declareWinner(1-idx);\n                    return;\n                }\n                // check tile commitments for each ship size and check that at least one tile per ship was not revealed during the game\n                if (i < 4) { \n                    //size 1\n                    if (boards[idx].board[shipX1[i]][shipY1[i]].revealed || !(shipX1[i] == shipX2[i] && shipY1[i] == shipY2[i] && keccak256(abi.encodePacked(shipFieldRandomness[i], true)) == boards[idx].board[shipX1[i]][shipY1[i]].commitment)) {\n                         //cheating\n                         declareWinner(1-idx);\n                         return;\n                     }\n                } else if (i < 7) {\n                    // ship of size 2\n                    for (x = shipX1[i]; x <= shipX2[i]; x++){\n                         for (y = shipY1[i]; y <= shipY2[i]; y++){\n                             size++;\n                             if (boards[idx].board[x][y].revealed) {\n                                 // count number of tiles revealed during the game\n                                 revealed++;\n                                 if (!boards[idx].board[x][y].ship) {\n                                    // one of the tiles indicated water\n                                    declareWinner(1-idx);\n                                    return;\n                                 }\n                             }\n                             if (keccak256(abi.encodePacked(shipFieldRandomness[4+(i-4)*2+size], true)) != boards[idx].board[x][y].commitment){\n                                 //cheating\n                                 declareWinner(1-idx);\n                                 return;\n                             }\n                         }   \n                     }\n                     if (size != 2) {\n                        //cheating\n                        declareWinner(1-idx);\n                        return;\n                     }\n                } else if (i < 9) {\n                    // ship of size 3\n                    for (x = shipX1[i]; x <= shipX2[i]; x++){\n                         for (y = shipY1[i]; y <= shipY2[i]; y++){\n                             size++;\n                             if (boards[idx].board[x][y].revealed) {\n                                 // count number of tiles revealed during the game\n                                 revealed++;\n                                 if (!boards[idx].board[x][y].ship) {\n                                    // one of the tiles indicated water\n                                    declareWinner(1-idx);\n                                    return;\n                                 }\n                             }\n                             if (keccak256(abi.encodePacked(shipFieldRandomness[10+(i-7)*3+size], true)) != boards[idx].board[x][y].commitment){\n                                //cheating\n                                declareWinner(1-idx);\n                                return;\n                             }\n                         }   \n                     }\n                     if (size != 3) {\n                        //cheating\n                        declareWinner(1-idx);\n                        return;\n                     }\n                } else {\n                     // ship of size 4\n                    for (x = shipX1[i]; x <= shipX2[i]; x++){\n                         for (y = shipY1[i]; y <= shipY2[i]; y++){\n                             size++;\n                             if (boards[idx].board[x][y].revealed) {\n                                 // count number of tiles revealed during the game\n                                 revealed++;\n                                 if (!boards[idx].board[x][y].ship) {\n                                    // one of the tiles indicated water\n                                    declareWinner(1-idx);\n                                    return;\n                                 }\n                             }\n                             if (keccak256(abi.encodePacked(shipFieldRandomness[16+size], true)) != boards[idx].board[x][y].commitment){\n                                //cheating\n                                declareWinner(1-idx);\n                                return;\n                             }\n                         }   \n                     }\n                     if (size != 4) {\n                        //cheating\n                        declareWinner(1-idx);\n                        return;\n                     }\n                }\n                if (revealed == size) {\n                    // the ship should have been revealed during the game but wasn't\n                    declareWinner(1-idx);\n                    return;\n                }\n                // add ship coordinates to contract\n                boards[idx].ships[i].x1 = shipX1[i];\n                boards[idx].ships[i].y1 = shipY1[i];\n                boards[idx].ships[i].x2 = shipX2[i];\n                boards[idx].ships[i].y2 = shipY2[i];\n            }\n        }\n    }\n    \n    /*\n    Fraud proof for adjacent or overlapping ships\n    Can be called during the game or once one player has claimed to win the game\n    */\n    function adjacentOrOverlapping(uint8 shipIdx1, uint8 shipIdx2) onlyPlayers() {\n        require(gameState != GameState.Finished);\n        \n        // idx of other player\n        uint8 playerIdx = 1;\n        if(msg.sender == players[1]) {\n            playerIdx = 0;\n        }\n        require(gameState == GameState.WinClaimed || (boards[playerIdx].ships[shipIdx1].sunk && boards[playerIdx].ships[shipIdx2].sunk));\n        bool cheated = (boards[playerIdx].ships[shipIdx2].x1 >= boards[playerIdx].ships[shipIdx1].x1 - 1\n                    &&  boards[playerIdx].ships[shipIdx2].x1 <= boards[playerIdx].ships[shipIdx1].x1 + 1\n                    &&  boards[playerIdx].ships[shipIdx2].y1 >= boards[playerIdx].ships[shipIdx1].y1 - 1\n                    &&  boards[playerIdx].ships[shipIdx2].y1 <= boards[playerIdx].ships[shipIdx1].y1 + 1);\n        cheated = cheated || \n                       (boards[playerIdx].ships[shipIdx2].x1 >= boards[playerIdx].ships[shipIdx1].x2 - 1\n                    &&  boards[playerIdx].ships[shipIdx2].x1 <= boards[playerIdx].ships[shipIdx1].x2 + 1\n                    &&  boards[playerIdx].ships[shipIdx2].y1 >= boards[playerIdx].ships[shipIdx1].y2 - 1\n                    &&  boards[playerIdx].ships[shipIdx2].y1 <= boards[playerIdx].ships[shipIdx1].y2 + 1);\n        cheated = cheated || \n                       (boards[playerIdx].ships[shipIdx2].x2 >= boards[playerIdx].ships[shipIdx1].x1 - 1\n                    &&  boards[playerIdx].ships[shipIdx2].x2 <= boards[playerIdx].ships[shipIdx1].x1 + 1\n                    &&  boards[playerIdx].ships[shipIdx2].y2 >= boards[playerIdx].ships[shipIdx1].y1 - 1\n                    &&  boards[playerIdx].ships[shipIdx2].y2 <= boards[playerIdx].ships[shipIdx1].y1 + 1);\n        cheated = cheated || \n                       (boards[playerIdx].ships[shipIdx2].x2 >= boards[playerIdx].ships[shipIdx1].x2 - 1\n                    &&  boards[playerIdx].ships[shipIdx2].x2 <= boards[playerIdx].ships[shipIdx1].x2 + 1\n                    &&  boards[playerIdx].ships[shipIdx2].y2 >= boards[playerIdx].ships[shipIdx1].y2 - 1\n                    &&  boards[playerIdx].ships[shipIdx2].y2 <= boards[playerIdx].ships[shipIdx1].y2 + 1);\n        if (cheated) {\n            declareWinner(1-playerIdx);\n        }\n        \n    }\n    \n    /*\n    Allows the players to claim the win if the other player takes too long to take his turn\n    */\n    function timeout() public onlyPlayers() {\n        require(gameState == GameState.Attack || gameState == GameState.Reveal);\n        if (block.number > lastUpdateHeight + 20) {\n            declareWinner(1-turn);\n        }\n    }\n    \n    /*\n    Allows the players to finalize the game after the period for fraud proof submission is over\n    */\n    function finishGame() public onlyPlayers() onlyState(GameState.WinClaimed) {\n        if (block.number > lastUpdateHeight + 20) {\n            gameState = GameState.Finished;\n        }\n    }\n}\n",
  "sourcePath": "/home/surya/projects/bootcamp/statechannels/contracts/BattleShips.sol",
  "compiler": {
    "name": "solc",
    "version": "0.4.24+commit.e67f0147.Emscripten.clang"
  },
  "schemaVersion": "2.0.0",
  "updatedAt": "2018-07-17T02:15:41.247Z"
}