{
  "contractName": "BattleShips",
  "abi": [
    {
      "constant": true,
      "inputs": [],
      "name": "lastY",
      "outputs": [
        {
          "name": "",
          "type": "uint8"
        }
      ],
      "payable": false,
      "stateMutability": "view",
      "type": "function"
    },
    {
      "constant": true,
      "inputs": [],
      "name": "lastUpdateHeight",
      "outputs": [
        {
          "name": "",
          "type": "uint256"
        }
      ],
      "payable": false,
      "stateMutability": "view",
      "type": "function"
    },
    {
      "constant": true,
      "inputs": [],
      "name": "turn",
      "outputs": [
        {
          "name": "",
          "type": "uint8"
        }
      ],
      "payable": false,
      "stateMutability": "view",
      "type": "function"
    },
    {
      "constant": true,
      "inputs": [
        {
          "name": "",
          "type": "uint256"
        }
      ],
      "name": "boards",
      "outputs": [
        {
          "name": "committed",
          "type": "bool"
        }
      ],
      "payable": false,
      "stateMutability": "view",
      "type": "function"
    },
    {
      "constant": true,
      "inputs": [],
      "name": "gameState",
      "outputs": [
        {
          "name": "",
          "type": "uint8"
        }
      ],
      "payable": false,
      "stateMutability": "view",
      "type": "function"
    },
    {
      "constant": true,
      "inputs": [],
      "name": "winner",
      "outputs": [
        {
          "name": "",
          "type": "address"
        }
      ],
      "payable": false,
      "stateMutability": "view",
      "type": "function"
    },
    {
      "constant": true,
      "inputs": [],
      "name": "lastX",
      "outputs": [
        {
          "name": "",
          "type": "uint8"
        }
      ],
      "payable": false,
      "stateMutability": "view",
      "type": "function"
    },
    {
      "constant": true,
      "inputs": [
        {
          "name": "",
          "type": "uint256"
        }
      ],
      "name": "players",
      "outputs": [
        {
          "name": "",
          "type": "address"
        }
      ],
      "payable": false,
      "stateMutability": "view",
      "type": "function"
    },
    {
      "inputs": [
        {
          "name": "player0",
          "type": "address"
        },
        {
          "name": "player1",
          "type": "address"
        }
      ],
      "payable": false,
      "stateMutability": "nonpayable",
      "type": "constructor"
    },
    {
      "anonymous": false,
      "inputs": [
        {
          "indexed": true,
          "name": "player",
          "type": "address"
        }
      ],
      "name": "BoardCommit",
      "type": "event"
    },
    {
      "anonymous": false,
      "inputs": [
        {
          "indexed": true,
          "name": "player",
          "type": "address"
        },
        {
          "indexed": false,
          "name": "x",
          "type": "uint8"
        },
        {
          "indexed": false,
          "name": "y",
          "type": "uint8"
        }
      ],
      "name": "Attack",
      "type": "event"
    },
    {
      "anonymous": false,
      "inputs": [
        {
          "indexed": true,
          "name": "player",
          "type": "address"
        },
        {
          "indexed": false,
          "name": "hit",
          "type": "bool"
        }
      ],
      "name": "Reveal",
      "type": "event"
    },
    {
      "anonymous": false,
      "inputs": [
        {
          "indexed": true,
          "name": "player",
          "type": "address"
        }
      ],
      "name": "Winner",
      "type": "event"
    },
    {
      "anonymous": false,
      "inputs": [
        {
          "indexed": true,
          "name": "player",
          "type": "address"
        },
        {
          "indexed": false,
          "name": "shipidx",
          "type": "uint8"
        }
      ],
      "name": "RevealSink",
      "type": "event"
    },
    {
      "anonymous": false,
      "inputs": [
        {
          "indexed": false,
          "name": "i",
          "type": "uint8"
        },
        {
          "indexed": false,
          "name": "revealed",
          "type": "uint8"
        },
        {
          "indexed": false,
          "name": "size",
          "type": "uint8"
        }
      ],
      "name": "notRevealed",
      "type": "event"
    },
    {
      "constant": false,
      "inputs": [
        {
          "name": "x",
          "type": "uint8"
        },
        {
          "name": "y",
          "type": "uint8"
        }
      ],
      "name": "attack",
      "outputs": [],
      "payable": false,
      "stateMutability": "nonpayable",
      "type": "function"
    },
    {
      "constant": false,
      "inputs": [
        {
          "name": "randomness",
          "type": "uint128"
        },
        {
          "name": "ship",
          "type": "bool"
        }
      ],
      "name": "reveal",
      "outputs": [],
      "payable": false,
      "stateMutability": "nonpayable",
      "type": "function"
    },
    {
      "constant": false,
      "inputs": [
        {
          "name": "player",
          "type": "uint8"
        },
        {
          "name": "shipidx",
          "type": "uint8"
        },
        {
          "name": "x1",
          "type": "uint8"
        },
        {
          "name": "x2",
          "type": "uint8"
        },
        {
          "name": "y1",
          "type": "uint8"
        },
        {
          "name": "y2",
          "type": "uint8"
        }
      ],
      "name": "isSunk",
      "outputs": [
        {
          "name": "",
          "type": "bool"
        }
      ],
      "payable": false,
      "stateMutability": "nonpayable",
      "type": "function"
    },
    {
      "constant": false,
      "inputs": [
        {
          "name": "fieldRandomness",
          "type": "uint128"
        },
        {
          "name": "shipRandomness",
          "type": "uint128"
        },
        {
          "name": "shipIdx",
          "type": "uint8"
        },
        {
          "name": "shipx1",
          "type": "uint8"
        },
        {
          "name": "shipy1",
          "type": "uint8"
        },
        {
          "name": "shipx2",
          "type": "uint8"
        },
        {
          "name": "shipy2",
          "type": "uint8"
        }
      ],
      "name": "revealSink",
      "outputs": [],
      "payable": false,
      "stateMutability": "nonpayable",
      "type": "function"
    },
    {
      "constant": false,
      "inputs": [],
      "name": "claimWin",
      "outputs": [],
      "payable": false,
      "stateMutability": "nonpayable",
      "type": "function"
    },
    {
      "constant": true,
      "inputs": [
        {
          "name": "_player",
          "type": "uint8"
        }
      ],
      "name": "isCommitted",
      "outputs": [
        {
          "name": "",
          "type": "bool"
        }
      ],
      "payable": false,
      "stateMutability": "view",
      "type": "function"
    },
    {
      "constant": false,
      "inputs": [
        {
          "name": "boardCommitments",
          "type": "bytes32[10][10]"
        },
        {
          "name": "shipCommitments",
          "type": "bytes32[10]"
        }
      ],
      "name": "commitBoard",
      "outputs": [],
      "payable": false,
      "stateMutability": "nonpayable",
      "type": "function"
    },
    {
      "constant": false,
      "inputs": [
        {
          "name": "idx",
          "type": "uint8"
        },
        {
          "name": "shipFieldRandomness",
          "type": "uint128[20]"
        },
        {
          "name": "shipRandomness",
          "type": "uint128[10]"
        },
        {
          "name": "shipX1",
          "type": "uint8[10]"
        },
        {
          "name": "shipY1",
          "type": "uint8[10]"
        },
        {
          "name": "shipX2",
          "type": "uint8[10]"
        },
        {
          "name": "shipY2",
          "type": "uint8[10]"
        }
      ],
      "name": "checkBoard",
      "outputs": [],
      "payable": false,
      "stateMutability": "nonpayable",
      "type": "function"
    },
    {
      "constant": false,
      "inputs": [
        {
          "name": "shipIdx1",
          "type": "uint8"
        },
        {
          "name": "shipIdx2",
          "type": "uint8"
        }
      ],
      "name": "adjacentOrOverlapping",
      "outputs": [],
      "payable": false,
      "stateMutability": "nonpayable",
      "type": "function"
    },
    {
      "constant": false,
      "inputs": [],
      "name": "timeout",
      "outputs": [],
      "payable": false,
      "stateMutability": "nonpayable",
      "type": "function"
    },
    {
      "constant": false,
      "inputs": [],
      "name": "finishGame",
      "outputs": [],
      "payable": false,
      "stateMutability": "nonpayable",
      "type": "function"
    }
  ],
  "bytecode": "0x60806040523480156200001157600080fd5b506040516040806200414a833981018060405281019080805190602001909291908051906020019092919050505081600160006002811015156200005157fe5b0160006101000a81548173ffffffffffffffffffffffffffffffffffffffff021916908373ffffffffffffffffffffffffffffffffffffffff16021790555080600180600281101515620000a157fe5b0160006101000a81548173ffffffffffffffffffffffffffffffffffffffff021916908373ffffffffffffffffffffffffffffffffffffffff160217905550816101c060008060ff16815260200190815260200160002060006101000a81548173ffffffffffffffffffffffffffffffffffffffff021916908373ffffffffffffffffffffffffffffffffffffffff160217905550806101c06000600160ff16815260200190815260200160002060006101000a81548173ffffffffffffffffffffffffffffffffffffffff021916908373ffffffffffffffffffffffffffffffffffffffff16021790555060008060016101000a81548160ff02191690836004811115620001ac57fe5b02179055505050613f8780620001c36000396000f300608060405260043610610107576000357c0100000000000000000000000000000000000000000000000000000000900463ffffffff168063147600121461010c5780634c6cba8f1461013d5780634c90c7e0146101885780636e7be132146101b357806370dea79a1461023c578063714fddbc14610253578063808984ba1461030f57806380f991381461034c57806381c8378c146103895780638b299903146104d95780639563db1f1461050a5780639a7083f9146105525780639fecb69f14610597578063b5a660db146105ae578063b5ffd8171461064a578063d1f9c24d14610661578063dfbf53ae1461069a578063f6cfa006146106f1578063f71d96cb14610722575b600080fd5b34801561011857600080fd5b5061012161078f565b604051808260ff1660ff16815260200191505060405180910390f35b34801561014957600080fd5b5061018660048036038101908080356fffffffffffffffffffffffffffffffff1690602001909291908035151590602001909291905050506107a3565b005b34801561019457600080fd5b5061019d610c46565b6040518082815260200191505060405180910390f35b3480156101bf57600080fd5b50610222600480360381019080803560ff169060200190929190803560ff169060200190929190803560ff169060200190929190803560ff169060200190929190803560ff169060200190929190803560ff169060200190929190505050610c4d565b604051808215151515815260200191505060405180910390f35b34801561024857600080fd5b50610251610d32565b005b34801561025f57600080fd5b5061030d60048036038101908080610c800190600a80602002604051908101604052809291906000905b828210156102cc5783826101400201600a806020026040519081016040528092919082600a60200280828437820191505050505081526020019060010190610289565b505050509192919290806101400190600a806020026040519081016040528092919082600a6020028082843782019150505050509192919290505050610e92565b005b34801561031b57600080fd5b5061034a600480360381019080803560ff169060200190929190803560ff169060200190929190505050611222565b005b34801561035857600080fd5b50610387600480360381019080803560ff169060200190929190803560ff169060200190929190505050611401565b005b34801561039557600080fd5b506104d7600480360381019080803560ff169060200190929190806102800190601480602002604051908101604052809291908260146020028082843782019150505050509192919290806101400190600a806020026040519081016040528092919082600a6020028082843782019150505050509192919290806101400190600a806020026040519081016040528092919082600a6020028082843782019150505050509192919290806101400190600a806020026040519081016040528092919082600a6020028082843782019150505050509192919290806101400190600a806020026040519081016040528092919082600a6020028082843782019150505050509192919290806101400190600a806020026040519081016040528092919082600a6020028082843782019150505050509192919290505050611f3e565b005b3480156104e557600080fd5b506104ee613069565b604051808260ff1660ff16815260200191505060405180910390f35b34801561051657600080fd5b50610538600480360381019080803560ff16906020019092919050505061307b565b604051808215151515815260200191505060405180910390f35b34801561055e57600080fd5b5061057d600480360381019080803590602001909291905050506130ab565b604051808215151515815260200191505060405180910390f35b3480156105a357600080fd5b506105ac6130db565b005b3480156105ba57600080fd5b5061064860048036038101908080356fffffffffffffffffffffffffffffffff16906020019092919080356fffffffffffffffffffffffffffffffff169060200190929190803560ff169060200190929190803560ff169060200190929190803560ff169060200190929190803560ff169060200190929190803560ff169060200190929190505050613217565b005b34801561065657600080fd5b5061065f613c21565b005b34801561066d57600080fd5b50610676613dd9565b6040518082600481111561068657fe5b60ff16815260200191505060405180910390f35b3480156106a657600080fd5b506106af613dec565b604051808273ffffffffffffffffffffffffffffffffffffffff1673ffffffffffffffffffffffffffffffffffffffff16815260200191505060405180910390f35b3480156106fd57600080fd5b50610706613e12565b604051808260ff1660ff16815260200191505060405180910390f35b34801561072e57600080fd5b5061074d60048036038101908080359060200190929190505050613e26565b604051808273ffffffffffffffffffffffffffffffffffffffff1673ffffffffffffffffffffffffffffffffffffffff16815260200191505060405180910390f35b6101bf60019054906101000a900460ff1681565b60016000809054906101000a900460ff1660ff166002811015156107c357fe5b0160009054906101000a900473ffffffffffffffffffffffffffffffffffffffff1673ffffffffffffffffffffffffffffffffffffffff163373ffffffffffffffffffffffffffffffffffffffff1614151561081e57600080fd5b600280600481111561082c57fe5b600060019054906101000a900460ff16600481111561084757fe5b14151561085357600080fd5b60046000809054906101000a900460ff1660ff1660028110151561087357fe5b60dd02016000016101bf60009054906101000a900460ff1660ff16600a8110151561089a57fe5b601402016101bf60019054906101000a900460ff1660ff16600a811015156108be57fe5b600202016000015460001916838360405160200180836fffffffffffffffffffffffffffffffff166fffffffffffffffffffffffffffffffff1670010000000000000000000000000000000002815260100182151515157f0100000000000000000000000000000000000000000000000000000000000000028152600101925050506040516020818303038152906040526040518082805190602001908083835b602083101515610984578051825260208201915060208101905060208303925061095f565b6001836020036101000a0380198251168184511680821785525050505050509050019150506040518091039020600019161415610c26578160046000809054906101000a900460ff1660ff166002811015156109dc57fe5b60dd02016000016101bf60009054906101000a900460ff1660ff16600a81101515610a0357fe5b601402016101bf60019054906101000a900460ff1660ff16600a81101515610a2757fe5b6002020160010160106101000a81548160ff0219169083151502179055508260046000809054906101000a900460ff1660ff16600281101515610a6657fe5b60dd02016000016101bf60009054906101000a900460ff1660ff16600a81101515610a8d57fe5b601402016101bf60019054906101000a900460ff1660ff16600a81101515610ab157fe5b6002020160010160006101000a8154816fffffffffffffffffffffffffffffffff02191690836fffffffffffffffffffffffffffffffff160217905550600160046000809054906101000a900460ff1660ff16600281101515610b1057fe5b60dd02016000016101bf60009054906101000a900460ff1660ff16600a81101515610b3757fe5b601402016101bf60019054906101000a900460ff1660ff16600a81101515610b5b57fe5b6002020160010160116101000a81548160ff0219169083151502179055508115610bab5760016000809054906101000a900460ff16036000806101000a81548160ff021916908360ff1602179055505b6001600060016101000a81548160ff02191690836004811115610bca57fe5b02179055503373ffffffffffffffffffffffffffffffffffffffff167fcecda291c7ffb26b3324b2dee1a6c52e1600ac8c5ed51a1fad03b2263bec6fb683604051808215151515815260200191505060405180910390a2610c41565b610c4060016000809054906101000a900460ff1603613e5b565b5b505050565b6101be5481565b60008060048860ff16600281101515610c6257fe5b60dd020160c8018760ff16600a81101515610c7957fe5b6002020190508560ff168160010160109054906101000a900460ff1660ff16141515610ca457600080fd5b8360ff168160010160119054906101000a900460ff1660ff16141515610cc957600080fd5b8460ff168160010160129054906101000a900460ff1660ff16141515610cee57600080fd5b8260ff168160010160139054906101000a900460ff1660ff16141515610d1357600080fd5b8060010160149054906101000a900460ff169150509695505050505050565b60016000600281101515610d4257fe5b0160009054906101000a900473ffffffffffffffffffffffffffffffffffffffff1673ffffffffffffffffffffffffffffffffffffffff163373ffffffffffffffffffffffffffffffffffffffff161480610df85750600180600281101515610da757fe5b0160009054906101000a900473ffffffffffffffffffffffffffffffffffffffff1673ffffffffffffffffffffffffffffffffffffffff163373ffffffffffffffffffffffffffffffffffffffff16145b1515610e0357600080fd5b60016004811115610e1057fe5b600060019054906101000a900460ff166004811115610e2b57fe5b1480610e5c575060026004811115610e3f57fe5b600060019054906101000a900460ff166004811115610e5a57fe5b145b1515610e6757600080fd5b60146101be5401431115610e9057610e8f6000809054906101000a900460ff16600103613e5b565b5b565b600080600060016000600281101515610ea757fe5b0160009054906101000a900473ffffffffffffffffffffffffffffffffffffffff1673ffffffffffffffffffffffffffffffffffffffff163373ffffffffffffffffffffffffffffffffffffffff161480610f5d5750600180600281101515610f0c57fe5b0160009054906101000a900473ffffffffffffffffffffffffffffffffffffffff1673ffffffffffffffffffffffffffffffffffffffff163373ffffffffffffffffffffffffffffffffffffffff16145b1515610f6857600080fd5b6000806004811115610f7657fe5b600060019054906101000a900460ff166004811115610f9157fe5b141515610f9d57600080fd5b60009350600180600281101515610fb057fe5b0160009054906101000a900473ffffffffffffffffffffffffffffffffffffffff1673ffffffffffffffffffffffffffffffffffffffff163373ffffffffffffffffffffffffffffffffffffffff16141561100a57600193505b600092505b600a8360ff1610156110bd57600091505b600a8260ff1610156110b057858360ff16600a8110151561103d57fe5b60200201518260ff16600a8110151561105257fe5b602002015160048560ff1660028110151561106957fe5b60dd02016000018460ff16600a8110151561108057fe5b601402018360ff16600a8110151561109457fe5b6002020160000181600019169055508180600101925050611020565b828060010193505061100f565b600092505b600a8360ff16101561112957848360ff16600a811015156110df57fe5b602002015160048560ff166002811015156110f657fe5b60dd020160c8018460ff16600a8110151561110d57fe5b60020201600001816000191690555082806001019350506110c2565b600160048560ff1660028110151561113d57fe5b60dd020160dc0160006101000a81548160ff0219169083151502179055506004600060028110151561116b57fe5b60dd020160dc0160009054906101000a900460ff1680156111ad57506004600160028110151561119757fe5b60dd020160dc0160009054906101000a900460ff165b156111d7576001600060016101000a81548160ff021916908360048111156111d157fe5b02179055505b3373ffffffffffffffffffffffffffffffffffffffff167f90014d12976a9127e359e1bb9002c97bc9910b28c0f4072ec544a3375cec826760405160405180910390a2505050505050565b60016000809054906101000a900460ff1660ff1660028110151561124257fe5b0160009054906101000a900473ffffffffffffffffffffffffffffffffffffffff1673ffffffffffffffffffffffffffffffffffffffff163373ffffffffffffffffffffffffffffffffffffffff1614151561129d57600080fd5b60018060048111156112ab57fe5b600060019054906101000a900460ff1660048111156112c657fe5b1415156112d257600080fd5b8260ff166000111580156112e95750600a8360ff16105b80156112f957508160ff16600011155b80156113085750600a8260ff16105b151561131357600080fd5b816101bf60016101000a81548160ff021916908360ff160217905550826101bf60006101000a81548160ff021916908360ff1602179055506000809054906101000a900460ff166001036000806101000a81548160ff021916908360ff1602179055506002600060016101000a81548160ff0219169083600481111561139557fe5b02179055503373ffffffffffffffffffffffffffffffffffffffff167f1ef6614125a1fe77a27b8c59fa612539cf4b737ee2761eea5a837d0cfa6401df8484604051808360ff1660ff1681526020018260ff1660ff1681526020019250505060405180910390a2505050565b6000806001600060028110151561141457fe5b0160009054906101000a900473ffffffffffffffffffffffffffffffffffffffff1673ffffffffffffffffffffffffffffffffffffffff163373ffffffffffffffffffffffffffffffffffffffff1614806114ca575060018060028110151561147957fe5b0160009054906101000a900473ffffffffffffffffffffffffffffffffffffffff1673ffffffffffffffffffffffffffffffffffffffff163373ffffffffffffffffffffffffffffffffffffffff16145b15156114d557600080fd5b6004808111156114e157fe5b600060019054906101000a900460ff1660048111156114fc57fe5b1415151561150957600080fd5b6001915060018060028110151561151c57fe5b0160009054906101000a900473ffffffffffffffffffffffffffffffffffffffff1673ffffffffffffffffffffffffffffffffffffffff163373ffffffffffffffffffffffffffffffffffffffff16141561157657600091505b6003600481111561158357fe5b600060019054906101000a900460ff16600481111561159e57fe5b148061162a575060048260ff166002811015156115b757fe5b60dd020160c8018460ff16600a811015156115ce57fe5b6002020160010160149054906101000a900460ff168015611629575060048260ff166002811015156115fc57fe5b60dd020160c8018360ff16600a8110151561161357fe5b6002020160010160149054906101000a900460ff165b5b151561163557600080fd5b600160048360ff1660028110151561164957fe5b60dd020160c8018560ff16600a8110151561166057fe5b6002020160010160109054906101000a900460ff160360ff1660048360ff1660028110151561168b57fe5b60dd020160c8018460ff16600a811015156116a257fe5b6002020160010160109054906101000a900460ff1660ff161015801561174b5750600160048360ff166002811015156116d757fe5b60dd020160c8018560ff16600a811015156116ee57fe5b6002020160010160109054906101000a900460ff160160ff1660048360ff1660028110151561171957fe5b60dd020160c8018460ff16600a8110151561173057fe5b6002020160010160109054906101000a900460ff1660ff1611155b80156117da5750600160048360ff1660028110151561176657fe5b60dd020160c8018560ff16600a8110151561177d57fe5b6002020160010160119054906101000a900460ff160360ff1660048360ff166002811015156117a857fe5b60dd020160c8018460ff16600a811015156117bf57fe5b6002020160010160119054906101000a900460ff1660ff1610155b80156118695750600160048360ff166002811015156117f557fe5b60dd020160c8018560ff16600a8110151561180c57fe5b6002020160010160119054906101000a900460ff160160ff1660048360ff1660028110151561183757fe5b60dd020160c8018460ff16600a8110151561184e57fe5b6002020160010160119054906101000a900460ff1660ff1611155b90508080611aa75750600160048360ff1660028110151561188657fe5b60dd020160c8018560ff16600a8110151561189d57fe5b6002020160010160129054906101000a900460ff160360ff1660048360ff166002811015156118c857fe5b60dd020160c8018460ff16600a811015156118df57fe5b6002020160010160109054906101000a900460ff1660ff16101580156119885750600160048360ff1660028110151561191457fe5b60dd020160c8018560ff16600a8110151561192b57fe5b6002020160010160129054906101000a900460ff160160ff1660048360ff1660028110151561195657fe5b60dd020160c8018460ff16600a8110151561196d57fe5b6002020160010160109054906101000a900460ff1660ff1611155b8015611a175750600160048360ff166002811015156119a357fe5b60dd020160c8018560ff16600a811015156119ba57fe5b6002020160010160139054906101000a900460ff160360ff1660048360ff166002811015156119e557fe5b60dd020160c8018460ff16600a811015156119fc57fe5b6002020160010160119054906101000a900460ff1660ff1610155b8015611aa65750600160048360ff16600281101515611a3257fe5b60dd020160c8018560ff16600a81101515611a4957fe5b6002020160010160139054906101000a900460ff160160ff1660048360ff16600281101515611a7457fe5b60dd020160c8018460ff16600a81101515611a8b57fe5b6002020160010160119054906101000a900460ff1660ff1611155b5b90508080611ce55750600160048360ff16600281101515611ac457fe5b60dd020160c8018560ff16600a81101515611adb57fe5b6002020160010160109054906101000a900460ff160360ff1660048360ff16600281101515611b0657fe5b60dd020160c8018460ff16600a81101515611b1d57fe5b6002020160010160129054906101000a900460ff1660ff1610158015611bc65750600160048360ff16600281101515611b5257fe5b60dd020160c8018560ff16600a81101515611b6957fe5b6002020160010160109054906101000a900460ff160160ff1660048360ff16600281101515611b9457fe5b60dd020160c8018460ff16600a81101515611bab57fe5b6002020160010160129054906101000a900460ff1660ff1611155b8015611c555750600160048360ff16600281101515611be157fe5b60dd020160c8018560ff16600a81101515611bf857fe5b6002020160010160119054906101000a900460ff160360ff1660048360ff16600281101515611c2357fe5b60dd020160c8018460ff16600a81101515611c3a57fe5b6002020160010160139054906101000a900460ff1660ff1610155b8015611ce45750600160048360ff16600281101515611c7057fe5b60dd020160c8018560ff16600a81101515611c8757fe5b6002020160010160119054906101000a900460ff160160ff1660048360ff16600281101515611cb257fe5b60dd020160c8018460ff16600a81101515611cc957fe5b6002020160010160139054906101000a900460ff1660ff1611155b5b90508080611f235750600160048360ff16600281101515611d0257fe5b60dd020160c8018560ff16600a81101515611d1957fe5b6002020160010160129054906101000a900460ff160360ff1660048360ff16600281101515611d4457fe5b60dd020160c8018460ff16600a81101515611d5b57fe5b6002020160010160129054906101000a900460ff1660ff1610158015611e045750600160048360ff16600281101515611d9057fe5b60dd020160c8018560ff16600a81101515611da757fe5b6002020160010160129054906101000a900460ff160160ff1660048360ff16600281101515611dd257fe5b60dd020160c8018460ff16600a81101515611de957fe5b6002020160010160129054906101000a900460ff1660ff1611155b8015611e935750600160048360ff16600281101515611e1f57fe5b60dd020160c8018560ff16600a81101515611e3657fe5b6002020160010160139054906101000a900460ff160360ff1660048360ff16600281101515611e6157fe5b60dd020160c8018460ff16600a81101515611e7857fe5b6002020160010160139054906101000a900460ff1660ff1610155b8015611f225750600160048360ff16600281101515611eae57fe5b60dd020160c8018560ff16600a81101515611ec557fe5b6002020160010160139054906101000a900460ff160160ff1660048360ff16600281101515611ef057fe5b60dd020160c8018460ff16600a81101515611f0757fe5b6002020160010160139054906101000a900460ff1660ff1611155b5b90508015611f3857611f3782600103613e5b565b5b50505050565b60008060008060008090505b600a8160ff16101561305a5760048c60ff16600281101515611f6857fe5b60dd020160c8018160ff16600a81101515611f7f57fe5b6002020160010160149054906101000a900460ff16151561304d576000945060009350868160ff16600a81101515611fb357fe5b602002015160ff16898260ff16600a81101515611fcc57fe5b602002015160ff16111580156120125750858160ff16600a81101515611fee57fe5b602002015160ff16888260ff16600a8110151561200757fe5b602002015160ff1611155b80156120875750868160ff16600a8110151561202a57fe5b602002015160ff16898260ff16600a8110151561204357fe5b602002015160ff1614806120865750858160ff16600a8110151561206357fe5b602002015160ff16888260ff16600a8110151561207c57fe5b602002015160ff16145b5b151561209e576120998c600103613e5b565b61305b565b60048c60ff166002811015156120b057fe5b60dd020160c8018160ff16600a811015156120c757fe5b6002020160000154600019168a8260ff16600a811015156120e457fe5b60200201518a8360ff16600a811015156120fa57fe5b60200201518a8460ff16600a8110151561211057fe5b60200201518a8560ff16600a8110151561212657fe5b60200201518a8660ff16600a8110151561213c57fe5b602002015160405160200180866fffffffffffffffffffffffffffffffff166fffffffffffffffffffffffffffffffff167001000000000000000000000000000000000281526010018560ff1660ff167f01000000000000000000000000000000000000000000000000000000000000000281526001018460ff1660ff167f01000000000000000000000000000000000000000000000000000000000000000281526001018360ff1660ff167f01000000000000000000000000000000000000000000000000000000000000000281526001018260ff1660ff167f0100000000000000000000000000000000000000000000000000000000000000028152600101955050505050506040516020818303038152906040526040518082805190602001908083835b6020831015156122885780518252602082019150602081019050602083039250612263565b6001836020036101000a0380198251168184511680821785525050505050509050019150506040518091039020600019161415156122d1576122cc8c600103613e5b565b61305b565b60048160ff16101561256f5760048c60ff166002811015156122ef57fe5b60dd0201600001898260ff16600a8110151561230757fe5b602002015160ff16600a8110151561231b57fe5b60140201888260ff16600a8110151561233057fe5b602002015160ff16600a8110151561234457fe5b6002020160010160119054906101000a900460ff168061254c5750868160ff16600a8110151561237057fe5b602002015160ff16898260ff16600a8110151561238957fe5b602002015160ff161480156123cd5750858160ff16600a811015156123aa57fe5b602002015160ff16888260ff16600a811015156123c357fe5b602002015160ff16145b801561254a575060048c60ff166002811015156123e657fe5b60dd0201600001898260ff16600a811015156123fe57fe5b602002015160ff16600a8110151561241257fe5b60140201888260ff16600a8110151561242757fe5b602002015160ff16600a8110151561243b57fe5b6002020160000154600019168b8260ff1660148110151561245857fe5b6020020151600160405160200180836fffffffffffffffffffffffffffffffff166fffffffffffffffffffffffffffffffff1670010000000000000000000000000000000002815260100182151515157f0100000000000000000000000000000000000000000000000000000000000000028152600101925050506040516020818303038152906040526040518082805190602001908083835b60208310151561251757805182526020820191506020810190506020830392506124f2565b6001836020036101000a038019825116818451168082178552505050505050905001915050604051809103902060001916145b155b156125625761255d8c600103613e5b565b61305b565b8480600101955050612e5c565b60078160ff16101561287057888160ff16600a8110151561258c57fe5b602002015192505b868160ff16600a811015156125a557fe5b602002015160ff168360ff1611151561284d57878160ff16600a811015156125c957fe5b602002015191505b858160ff16600a811015156125e257fe5b602002015160ff168260ff161115156128405760048c60ff1660028110151561260757fe5b60dd02016000018360ff16600a8110151561261e57fe5b601402018260ff16600a8110151561263257fe5b6002020160010160119054906101000a900460ff16156126be57838060010194505060048c60ff1660028110151561266657fe5b60dd02016000018360ff16600a8110151561267d57fe5b601402018260ff16600a8110151561269157fe5b6002020160010160109054906101000a900460ff1615156126bd576126b88c600103613e5b565b61305b565b5b60048c60ff166002811015156126d057fe5b60dd02016000018360ff16600a811015156126e757fe5b601402018260ff16600a811015156126fb57fe5b6002020160000154600019168b86600260048503026004010160ff1660148110151561272357fe5b6020020151600160405160200180836fffffffffffffffffffffffffffffffff166fffffffffffffffffffffffffffffffff1670010000000000000000000000000000000002815260100182151515157f0100000000000000000000000000000000000000000000000000000000000000028152600101925050506040516020818303038152906040526040518082805190602001908083835b6020831015156127e257805182526020820191506020810190506020830392506127bd565b6001836020036101000a03801982511681845116808217855250505050505090500191505060405180910390206000191614151561282b576128268c600103613e5b565b61305b565b848060010195505081806001019250506125d1565b8280600101935050612594565b60028560ff1614151561286b576128668c600103613e5b565b61305b565b612e5b565b60098160ff161015612b7157888160ff16600a8110151561288d57fe5b602002015192505b868160ff16600a811015156128a657fe5b602002015160ff168360ff16111515612b4e57878160ff16600a811015156128ca57fe5b602002015191505b858160ff16600a811015156128e357fe5b602002015160ff168260ff16111515612b415760048c60ff1660028110151561290857fe5b60dd02016000018360ff16600a8110151561291f57fe5b601402018260ff16600a8110151561293357fe5b6002020160010160119054906101000a900460ff16156129bf57838060010194505060048c60ff1660028110151561296757fe5b60dd02016000018360ff16600a8110151561297e57fe5b601402018260ff16600a8110151561299257fe5b6002020160010160109054906101000a900460ff1615156129be576129b98c600103613e5b565b61305b565b5b60048c60ff166002811015156129d157fe5b60dd02016000018360ff16600a811015156129e857fe5b601402018260ff16600a811015156129fc57fe5b6002020160000154600019168b8660036007850302600a010160ff16601481101515612a2457fe5b6020020151600160405160200180836fffffffffffffffffffffffffffffffff166fffffffffffffffffffffffffffffffff1670010000000000000000000000000000000002815260100182151515157f0100000000000000000000000000000000000000000000000000000000000000028152600101925050506040516020818303038152906040526040518082805190602001908083835b602083101515612ae35780518252602082019150602081019050602083039250612abe565b6001836020036101000a038019825116818451168082178552505050505050905001915050604051809103902060001916141515612b2c57612b278c600103613e5b565b61305b565b848060010195505081806001019250506128d2565b8280600101935050612895565b60038560ff16141515612b6c57612b678c600103613e5b565b61305b565b612e5a565b888160ff16600a81101515612b8257fe5b602002015192505b868160ff16600a81101515612b9b57fe5b602002015160ff168360ff16111515612e3b57878160ff16600a81101515612bbf57fe5b602002015191505b858160ff16600a81101515612bd857fe5b602002015160ff168260ff16111515612e2e5760048c60ff16600281101515612bfd57fe5b60dd02016000018360ff16600a81101515612c1457fe5b601402018260ff16600a81101515612c2857fe5b6002020160010160119054906101000a900460ff1615612cb457838060010194505060048c60ff16600281101515612c5c57fe5b60dd02016000018360ff16600a81101515612c7357fe5b601402018260ff16600a81101515612c8757fe5b6002020160010160109054906101000a900460ff161515612cb357612cae8c600103613e5b565b61305b565b5b60048c60ff16600281101515612cc657fe5b60dd02016000018360ff16600a81101515612cdd57fe5b601402018260ff16600a81101515612cf157fe5b6002020160000154600019168b8660100160ff16601481101515612d1157fe5b6020020151600160405160200180836fffffffffffffffffffffffffffffffff166fffffffffffffffffffffffffffffffff1670010000000000000000000000000000000002815260100182151515157f0100000000000000000000000000000000000000000000000000000000000000028152600101925050506040516020818303038152906040526040518082805190602001908083835b602083101515612dd05780518252602082019150602081019050602083039250612dab565b6001836020036101000a038019825116818451168082178552505050505050905001915050604051809103902060001916141515612e1957612e148c600103613e5b565b61305b565b84806001019550508180600101925050612bc7565b8280600101935050612b8a565b60048560ff16141515612e5957612e548c600103613e5b565b61305b565b5b5b5b8460ff168460ff161415612ed457612e768c600103613e5b565b7f2a5c01038ea159b0316d439bd8869517752b3d51c71869878ebc8befbed81cee818587604051808460ff1660ff1681526020018360ff1660ff1681526020018260ff1660ff168152602001935050505060405180910390a161305b565b888160ff16600a81101515612ee557fe5b602002015160048d60ff16600281101515612efc57fe5b60dd020160c8018260ff16600a81101515612f1357fe5b6002020160010160106101000a81548160ff021916908360ff160217905550878160ff16600a81101515612f4357fe5b602002015160048d60ff16600281101515612f5a57fe5b60dd020160c8018260ff16600a81101515612f7157fe5b6002020160010160116101000a81548160ff021916908360ff160217905550868160ff16600a81101515612fa157fe5b602002015160048d60ff16600281101515612fb857fe5b60dd020160c8018260ff16600a81101515612fcf57fe5b6002020160010160126101000a81548160ff021916908360ff160217905550858160ff16600a81101515612fff57fe5b602002015160048d60ff1660028110151561301657fe5b60dd020160c8018260ff16600a8110151561302d57fe5b6002020160010160136101000a81548160ff021916908360ff1602179055505b8080600101915050611f4a565b5b505050505050505050505050565b6000809054906101000a900460ff1681565b600060048260ff1660028110151561308f57fe5b60dd020160dc0160009054906101000a900460ff169050919050565b6004816002811015156130ba57fe5b60dd02016000915090508060dc0160009054906101000a900460ff16905081565b600160006002811015156130eb57fe5b0160009054906101000a900473ffffffffffffffffffffffffffffffffffffffff1673ffffffffffffffffffffffffffffffffffffffff163373ffffffffffffffffffffffffffffffffffffffff1614806131a1575060018060028110151561315057fe5b0160009054906101000a900473ffffffffffffffffffffffffffffffffffffffff1673ffffffffffffffffffffffffffffffffffffffff163373ffffffffffffffffffffffffffffffffffffffff16145b15156131ac57600080fd5b60038060048111156131ba57fe5b600060019054906101000a900460ff1660048111156131d557fe5b1415156131e157600080fd5b60146101be5401431115613214576004600060016101000a81548160ff0219169083600481111561320e57fe5b02179055505b50565b60008060016000809054906101000a900460ff1660ff1660028110151561323a57fe5b0160009054906101000a900473ffffffffffffffffffffffffffffffffffffffff1673ffffffffffffffffffffffffffffffffffffffff163373ffffffffffffffffffffffffffffffffffffffff1614151561329557600080fd5b60028060048111156132a357fe5b600060019054906101000a900460ff1660048111156132be57fe5b1415156132ca57600080fd5b60046000809054906101000a900460ff1660ff166002811015156132ea57fe5b60dd02016000016101bf60009054906101000a900460ff1660ff16600a8110151561331157fe5b601402016101bf60019054906101000a900460ff1660ff16600a8110151561333557fe5b6002020160000154600019168a600160405160200180836fffffffffffffffffffffffffffffffff166fffffffffffffffffffffffffffffffff1670010000000000000000000000000000000002815260100182151515157f0100000000000000000000000000000000000000000000000000000000000000028152600101925050506040516020818303038152906040526040518082805190602001908083835b6020831015156133fc57805182526020820191506020810190506020830392506133d7565b6001836020036101000a0380198251168184511680821785525050505050509050019150506040518091039020600019161480156135f7575060046000809054906101000a900460ff1660ff1660028110151561345557fe5b60dd020160c8018860ff16600a8110151561346c57fe5b600202016000015460001916898888888860405160200180866fffffffffffffffffffffffffffffffff166fffffffffffffffffffffffffffffffff167001000000000000000000000000000000000281526010018560ff1660ff167f01000000000000000000000000000000000000000000000000000000000000000281526001018460ff1660ff167f01000000000000000000000000000000000000000000000000000000000000000281526001018360ff1660ff167f01000000000000000000000000000000000000000000000000000000000000000281526001018260ff1660ff167f0100000000000000000000000000000000000000000000000000000000000000028152600101955050505050506040516020818303038152906040526040518082805190602001908083835b6020831015156135c4578051825260208201915060208101905060208303925061359f565b6001836020036101000a038019825116818451168082178552505050505050905001915050604051809103902060001916145b801561361957508660ff166101bf60009054906101000a900460ff1660ff1610155b801561363b57508460ff166101bf60009054906101000a900460ff1660ff1611155b801561365d57508560ff166101bf60019054906101000a900460ff1660ff1610155b801561367f57508360ff166101bf60019054906101000a900460ff1660ff1611155b80156136a057508460ff168760ff16148061369f57508360ff168660ff16145b5b15613bf957600160046000809054906101000a900460ff1660ff166002811015156136c757fe5b60dd02016000016101bf60009054906101000a900460ff1660ff16600a811015156136ee57fe5b601402016101bf60019054906101000a900460ff1660ff16600a8110151561371257fe5b6002020160010160106101000a81548160ff0219169083151502179055508960046000809054906101000a900460ff1660ff1660028110151561375157fe5b60dd02016000016101bf60009054906101000a900460ff1660ff16600a8110151561377857fe5b601402016101bf60019054906101000a900460ff1660ff16600a8110151561379c57fe5b6002020160010160006101000a8154816fffffffffffffffffffffffffffffffff02191690836fffffffffffffffffffffffffffffffff160217905550600160046000809054906101000a900460ff1660ff166002811015156137fb57fe5b60dd02016000016101bf60009054906101000a900460ff1660ff16600a8110151561382257fe5b601402016101bf60019054906101000a900460ff1660ff16600a8110151561384657fe5b6002020160010160116101000a81548160ff0219169083151502179055508860046000809054906101000a900460ff1660ff1660028110151561388557fe5b60dd020160c8018960ff16600a8110151561389c57fe5b6002020160010160006101000a8154816fffffffffffffffffffffffffffffffff02191690836fffffffffffffffffffffffffffffffff1602179055508660046000809054906101000a900460ff1660ff166002811015156138fa57fe5b60dd020160c8018960ff16600a8110151561391157fe5b6002020160010160106101000a81548160ff021916908360ff1602179055508560046000809054906101000a900460ff1660ff1660028110151561395157fe5b60dd020160c8018960ff16600a8110151561396857fe5b6002020160010160116101000a81548160ff021916908360ff1602179055508460046000809054906101000a900460ff1660ff166002811015156139a857fe5b60dd020160c8018960ff16600a811015156139bf57fe5b6002020160010160126101000a81548160ff021916908360ff1602179055508360046000809054906101000a900460ff1660ff166002811015156139ff57fe5b60dd020160c8018960ff16600a81101515613a1657fe5b6002020160010160136101000a81548160ff021916908360ff160217905550600160046000809054906101000a900460ff1660ff16600281101515613a5757fe5b60dd020160c8018960ff16600a81101515613a6e57fe5b6002020160010160146101000a81548160ff0219169083151502179055503373ffffffffffffffffffffffffffffffffffffffff167fd8dd3b17456591f99e3c6785293f538508ac2de021a53e3acb5a9c52275070a789604051808260ff1660ff16815260200191505060405180910390a28692505b8460ff168360ff16111515613ba5578591505b8360ff168260ff16111515613b985760046000809054906101000a900460ff1660ff16600281101515613b2657fe5b60dd02016000018360ff16600a81101515613b3d57fe5b601402018260ff16600a81101515613b5157fe5b6002020160010160109054906101000a900460ff161515613b8b57613b866000809054906101000a900460ff16600103613e5b565b613c15565b8180600101925050613af7565b8280600101935050613ae4565b60016000809054906101000a900460ff16036000806101000a81548160ff021916908360ff1602179055506001600060016101000a81548160ff02191690836004811115613bef57fe5b0217905550613c14565b613c1360016000809054906101000a900460ff1603613e5b565b5b5b50505050505050505050565b60008060016000600281101515613c3457fe5b0160009054906101000a900473ffffffffffffffffffffffffffffffffffffffff1673ffffffffffffffffffffffffffffffffffffffff163373ffffffffffffffffffffffffffffffffffffffff161480613cea5750600180600281101515613c9957fe5b0160009054906101000a900473ffffffffffffffffffffffffffffffffffffffff1673ffffffffffffffffffffffffffffffffffffffff163373ffffffffffffffffffffffffffffffffffffffff16145b1515613cf557600080fd5b60009150600180600281101515613d0857fe5b0160009054906101000a900473ffffffffffffffffffffffffffffffffffffffff1673ffffffffffffffffffffffffffffffffffffffff163373ffffffffffffffffffffffffffffffffffffffff161415613d6257600191505b600090505b600a8160ff161015613dcc5760048260010360ff16600281101515613d8857fe5b60dd020160c8018160ff16600a81101515613d9f57fe5b6002020160010160149054906101000a900460ff161515613dbf57600080fd5b8080600101915050613d67565b613dd582613e5b565b5050565b600060019054906101000a900460ff1681565b600360009054906101000a900473ffffffffffffffffffffffffffffffffffffffff1681565b6101bf60009054906101000a900460ff1681565b600181600281101515613e3557fe5b016000915054906101000a900473ffffffffffffffffffffffffffffffffffffffff1681565b60018160ff16600281101515613e6d57fe5b0160009054906101000a900473ffffffffffffffffffffffffffffffffffffffff16600360006101000a81548173ffffffffffffffffffffffffffffffffffffffff021916908373ffffffffffffffffffffffffffffffffffffffff1602179055506004600060016101000a81548160ff02191690836004811115613eee57fe5b0217905550600360009054906101000a900473ffffffffffffffffffffffffffffffffffffffff1673ffffffffffffffffffffffffffffffffffffffff167f745c90b656b4aafe296c8ca35aeacfe56cb96c90e1d320e5da643fff1051b6c060405160405180910390a2505600a165627a7a72305820825d9e859bb135303db83d6f0c7053b2eff37a61cb554cf5b8524c11a5b1604b0029",
  "source": "pragma solidity ^0.4.24;\n\ncontract BattleShips {\n   \n    /*\n    After game is Created, both players commit to their boards\n    During the game, the state is either Attack or Reveal\n    */\n    enum GameState { Created, Attack, Reveal, WinClaimed, Finished }\n    \n    uint8 public turn; //0 if players[0] turn, 1 if players[1] turn\n    GameState public gameState;\n    \n    address[2] public players;\n    address public winner;\n    Board[2] public boards;\n    \n    // TODO: set this after every action\n    uint256 public lastUpdateHeight;\n    \n    /*\n    coordinates of the last tile that has been attacked\n    */\n    uint8 public lastX;\n    uint8 public lastY;\n \n    /*\n    commitment is a hash of (randomness,ship)\n    randomness, ship are revealed during the game if Tile is hit\n    */\n    struct Tile {\n        bytes32 commitment;\n        uint128 randomness;\n        bool ship;\n        bool revealed;\n    }\n    \n    /*\n    commitment is hash of (randomness, x1, y1, x2, y2) \n    where (x1, y1) is the starting coordinate and (x2,y2) is the end coordinate\n    x1 <= x2, y1 <= y2\n    */\n    struct Ship {\n        bytes32 commitment;\n        uint128 randomness;\n        uint8 x1;\n        uint8 y1;\n        uint8 x2;\n        uint8 y2;\n        bool sunk;\n    }\n    \n    struct Board {\n        Tile[10][10] board;\n        Ship[10] ships;\n        bool committed;\n    }\n    \n    /*\n    restrict access to players\n    */ \n    modifier onlyPlayers() {\n        require(msg.sender == players[0] || msg.sender == players[1]);\n        _;\n    }\n    \n    /*\n    restrict access to player whose turn it is\n    */\n    modifier onlyPlayerTurn() {\n        require(msg.sender == players[turn]);\n        _;\n    }\n    \n    /*\n    only allow in `state`\n    */\n    modifier onlyState(GameState state) {\n        require(gameState == state);\n        _;\n    }\n    \n    event BoardCommit(address indexed player);\n    event Attack(address indexed player, uint8 x, uint8 y);\n    event Reveal(address indexed player, bool hit);\n    event Winner(address indexed player);\n    event RevealSink(address indexed player, uint8 shipidx);\n\n    mapping (uint8 => address) playerIndex;\n\n    constructor (address player0, address player1) public {\n        players[0] = player0;\n        players[1] = player1;\n        playerIndex[0] = player0;\n        playerIndex[1] = player1;\n        gameState = GameState.Created;\n    }\n    \n    \n    function declareWinner(uint8 idx) internal {\n        winner = players[idx];\n        gameState = GameState.Finished;\n        emit Winner(winner);\n    }\n    \n    /*\n    attacks tile at coordinate (x,y)\n    */ \n    function attack(uint8 x, uint8 y) onlyPlayerTurn onlyState(GameState.Attack) public {\n        require(0<=x && x<10 && 0<=y && y<10);\n        lastY = y;\n        lastX = x;\n        turn = 1 - turn;\n        gameState = GameState.Reveal;\n        emit Attack(msg.sender, x, y); \n    }\n    \n    /*\n    reveal last attacked tile if no ship has been sunk by a hit\n    */ \n    function reveal(uint128 randomness, bool ship) onlyPlayerTurn() onlyState(GameState.Reveal) public {\n        if (keccak256(abi.encodePacked(randomness, ship)) == boards[turn].board[lastX][lastY].commitment) {\n            boards[turn].board[lastX][lastY].ship = ship;\n            boards[turn].board[lastX][lastY].randomness = randomness;\n            boards[turn].board[lastX][lastY].revealed = true;\n             if (ship) {\n                 turn = turn - 1;\n             }\n             gameState = GameState.Attack;\n            emit Reveal(msg.sender, ship);\n        } else {\n            declareWinner(turn -1);\n        }\n    }\n    \n    function isSunk(uint8 player, uint8 shipidx, uint8 x1, uint8 x2, uint8 y1, uint8 y2) public returns (bool) {\n        Ship storage board = boards[player].ships[shipidx];\n        require(board.x1 == x1);\n        require(board.y1 == y1);\n        require(board.x2 == x2);\n        require(board.y2 == y2);\n\n        return board.sunk;\n    }\n\n    /*\n    reveal last attacked tile if a ship has been sunk by a hit\n    in that case, the ship also has to be revealed\n    */ \n\n    function revealSink(uint128 fieldRandomness, uint128 shipRandomness, uint8 shipIdx, uint8 shipx1, uint8 shipy1, uint8 shipx2, uint8 shipy2) onlyPlayerTurn() onlyState(GameState.Reveal) public {\n         if (keccak256(abi.encodePacked(fieldRandomness, true)) == boards[turn].board[lastX][lastY].commitment\n                 && keccak256(abi.encodePacked(shipRandomness, shipx1, shipy1, shipx2, shipy2)) == boards[turn].ships[shipIdx].commitment\n                 && lastX >= shipx1 && lastX <= shipx2\n                 && lastY >= shipy1 && lastY <= shipy2\n                 && (shipx1 == shipx2 || shipy1 == shipy2)) {\n            boards[turn].board[lastX][lastY].ship = true;\n            boards[turn].board[lastX][lastY].randomness = fieldRandomness;\n            boards[turn].board[lastX][lastY].revealed = true;\n             \n            boards[turn].ships[shipIdx].randomness = shipRandomness;\n            boards[turn].ships[shipIdx].x1 = shipx1;\n            boards[turn].ships[shipIdx].y1 = shipy1;\n            boards[turn].ships[shipIdx].x2 = shipx2;\n            boards[turn].ships[shipIdx].y2 = shipy2;\n            boards[turn].ships[shipIdx].sunk = true;\n            \n            emit RevealSink(msg.sender, shipIdx);\n \n            // check that all tiles of the ship have been hit and contain a ship\n            for (uint8 x = shipx1; x <= shipx2; x++){\n                for (uint8 y = shipy1; y <= shipy2; y++){\n                    if (!boards[turn].board[x][y].ship) {\n                        // cheating, either tile hasn't been revealed or indicated water\n                        declareWinner(1-turn);\n                        return;\n                    }\n                }\n            }   \n             \n            turn = turn - 1;\n            gameState = GameState.Attack;\n        } else {\n            declareWinner(turn -1);\n        }\n    }\n    \n    function claimWin( ) onlyPlayers() public {\n         uint8 idx = 0;\n         if(msg.sender == players[1]) {\n            idx = 1;\n         }\n         for (uint8 i = 0; i<10; i++) {\n             require(boards[1-idx].ships[i].sunk);\n         }\n         // TODO: check board of winner\n         declareWinner(idx);\n    }\n\n\n    function isCommitted(uint8 _player) public view returns (bool) {\n        return boards[_player].committed;\n    }\n   \n    /* currently allows players to change the commitments to their board until the other player has also committed */\n    function commitBoard(bytes32[10][10] boardCommitments, bytes32[10] shipCommitments) onlyPlayers onlyState(GameState.Created) public {\n        uint8 idx = 0;\n        if(msg.sender == players[1]) {\n            idx = 1;\n        }\n        for (uint8 i = 0; i<10; i++) {\n             for (uint8 j = 0; j<10;j++) {\n                 boards[idx].board[i][j].commitment = boardCommitments[i][j];\n             }\n         }\n         for (i = 0; i<10;i++) {\n             boards[idx].ships[i].commitment = shipCommitments[i];\n         }\n         boards[idx].committed = true;\n         if (boards[0].committed && boards[1].committed) {\n            gameState = GameState.Attack;\n         }\n\n        emit BoardCommit(msg.sender);\n    }\n   \n\n    event notRevealed(uint8 i, uint8 revealed, uint8 size);\n\n    /*\n    checks whether a player has actually placed all ships on the committed board\n    the player reveals the ship locations and the blinding factors for all commitments for tiles that contain a ship\n    */\n    function checkBoard(uint8 idx, uint128[20] shipFieldRandomness, uint128[10] shipRandomness, uint8[10] shipX1, uint8[10] shipY1, uint8[10] shipX2, uint8[10] shipY2)  public {\n        uint8 size;\n        uint8 revealed;\n        uint8 x;\n        uint8 y;\n        for (uint8 i = 0; i<10; i++) {\n            if (!boards[idx].ships[i].sunk) {\n                // if the ship has been sunk, the locations have already been checked, otherwise check that they are actually on the board\n                size = 0;\n                revealed = 0;\n                \n                // ship has to be tiles in a line, second coordinate has to be larger\n                if (!(shipX1[i] <= shipX2[i] && shipY1[i] <= shipY2[i] && (shipX1[i] == shipX2[i] || shipY1[i] == shipY2[i]))) {\n                    //cheating\n                    declareWinner(1-idx);\n                    return;\n                }\n                // check ship commitment\n                if (keccak256(abi.encodePacked(shipRandomness[i], shipX1[i], shipY1[i], shipX2[i], shipY2[i])) != boards[idx].ships[i].commitment) {\n                    //cheating\n                    declareWinner(1-idx);\n                    return;\n                }\n                // check tile commitments for each ship size and check that at least one tile per ship was not revealed during the game\n                if (i < 4) { \n                    //size 1\n                    if (boards[idx].board[shipX1[i]][shipY1[i]].revealed || !(shipX1[i] == shipX2[i] && shipY1[i] == shipY2[i] && keccak256(abi.encodePacked(shipFieldRandomness[i], true)) == boards[idx].board[shipX1[i]][shipY1[i]].commitment)) {\n                         //cheating\n                         declareWinner(1-idx);\n                         return;\n                     }\n                    size++;\n                } else if (i < 7) {\n                    // ship of size 2\n                    for (x = shipX1[i]; x <= shipX2[i]; x++){\n                         for (y = shipY1[i]; y <= shipY2[i]; y++){\n                             if (boards[idx].board[x][y].revealed) {\n                                 // count number of tiles revealed during the game\n                                 revealed++;\n                                 if (!boards[idx].board[x][y].ship) {\n                                    // one of the tiles indicated water\n                                    declareWinner(1-idx);\n                                    return;\n                                 }\n                             }\n                             if (keccak256(abi.encodePacked(shipFieldRandomness[4+(i-4)*2+size], true)) != boards[idx].board[x][y].commitment){\n                                 //cheating\n                                 declareWinner(1-idx);\n                                 return;\n                             }\n                             size++;\n                         }   \n                     }\n                     if (size != 2) {\n                        //cheating\n                        declareWinner(1-idx);\n                        return;\n                     }\n                } else if (i < 9) {\n                    // ship of size 3\n                    for (x = shipX1[i]; x <= shipX2[i]; x++){\n                         for (y = shipY1[i]; y <= shipY2[i]; y++){\n                             if (boards[idx].board[x][y].revealed) {\n                                 // count number of tiles revealed during the game\n                                 revealed++;\n                                 if (!boards[idx].board[x][y].ship) {\n                                    // one of the tiles indicated water\n                                    declareWinner(1-idx);\n                                    return;\n                                 }\n                             }\n                             if (keccak256(abi.encodePacked(shipFieldRandomness[10+(i-7)*3+size], true)) != boards[idx].board[x][y].commitment){\n                                //cheating\n                                declareWinner(1-idx);\n                                return;\n                             }\n                             size++;\n                         }   \n                     }\n                     if (size != 3) {\n                        //cheating\n                        declareWinner(1-idx);\n                        return;\n                     }\n                } else {\n                     // ship of size 4\n                    for (x = shipX1[i]; x <= shipX2[i]; x++){\n                         for (y = shipY1[i]; y <= shipY2[i]; y++){\n                             if (boards[idx].board[x][y].revealed) {\n                                 // count number of tiles revealed during the game\n                                 revealed++;\n                                 if (!boards[idx].board[x][y].ship) {\n                                    // one of the tiles indicated water\n                                    declareWinner(1-idx);\n                                    return;\n                                 }\n                             }\n                             if (keccak256(abi.encodePacked(shipFieldRandomness[16+size], true)) != boards[idx].board[x][y].commitment){\n                                //cheating\n                                declareWinner(1-idx);\n                                return;\n                             }\n                             size++;\n                         }   \n                     }\n                     if (size != 4) {\n                        //cheating\n                        declareWinner(1-idx);\n                        return;\n                     }\n                }\n                if (revealed == size) {\n                    // the ship should have been revealed during the game but wasn't\n                    declareWinner(1-idx);\n                    emit notRevealed(i, revealed, size);\n                    return;\n                }\n                // add ship coordinates to contract\n                boards[idx].ships[i].x1 = shipX1[i];\n                boards[idx].ships[i].y1 = shipY1[i];\n                boards[idx].ships[i].x2 = shipX2[i];\n                boards[idx].ships[i].y2 = shipY2[i];\n            }\n        }\n    }\n    \n    /*\n    Fraud proof for adjacent or overlapping ships\n    Can be called during the game or once one player has claimed to win the game\n    */\n    function adjacentOrOverlapping(uint8 shipIdx1, uint8 shipIdx2) onlyPlayers() public {\n        require(gameState != GameState.Finished);\n        \n        // idx of other player\n        uint8 playerIdx = 1;\n        if(msg.sender == players[1]) {\n            playerIdx = 0;\n        }\n        require(gameState == GameState.WinClaimed || (boards[playerIdx].ships[shipIdx1].sunk && boards[playerIdx].ships[shipIdx2].sunk));\n        bool cheated = (boards[playerIdx].ships[shipIdx2].x1 >= boards[playerIdx].ships[shipIdx1].x1 - 1\n                    &&  boards[playerIdx].ships[shipIdx2].x1 <= boards[playerIdx].ships[shipIdx1].x1 + 1\n                    &&  boards[playerIdx].ships[shipIdx2].y1 >= boards[playerIdx].ships[shipIdx1].y1 - 1\n                    &&  boards[playerIdx].ships[shipIdx2].y1 <= boards[playerIdx].ships[shipIdx1].y1 + 1);\n        cheated = cheated || \n                       (boards[playerIdx].ships[shipIdx2].x1 >= boards[playerIdx].ships[shipIdx1].x2 - 1\n                    &&  boards[playerIdx].ships[shipIdx2].x1 <= boards[playerIdx].ships[shipIdx1].x2 + 1\n                    &&  boards[playerIdx].ships[shipIdx2].y1 >= boards[playerIdx].ships[shipIdx1].y2 - 1\n                    &&  boards[playerIdx].ships[shipIdx2].y1 <= boards[playerIdx].ships[shipIdx1].y2 + 1);\n        cheated = cheated || \n                       (boards[playerIdx].ships[shipIdx2].x2 >= boards[playerIdx].ships[shipIdx1].x1 - 1\n                    &&  boards[playerIdx].ships[shipIdx2].x2 <= boards[playerIdx].ships[shipIdx1].x1 + 1\n                    &&  boards[playerIdx].ships[shipIdx2].y2 >= boards[playerIdx].ships[shipIdx1].y1 - 1\n                    &&  boards[playerIdx].ships[shipIdx2].y2 <= boards[playerIdx].ships[shipIdx1].y1 + 1);\n        cheated = cheated || \n                       (boards[playerIdx].ships[shipIdx2].x2 >= boards[playerIdx].ships[shipIdx1].x2 - 1\n                    &&  boards[playerIdx].ships[shipIdx2].x2 <= boards[playerIdx].ships[shipIdx1].x2 + 1\n                    &&  boards[playerIdx].ships[shipIdx2].y2 >= boards[playerIdx].ships[shipIdx1].y2 - 1\n                    &&  boards[playerIdx].ships[shipIdx2].y2 <= boards[playerIdx].ships[shipIdx1].y2 + 1);\n        if (cheated) {\n            declareWinner(1-playerIdx);\n        }\n        \n    }\n    \n    /*\n    Allows the players to claim the win if the other player takes too long to take his turn\n    */\n    function timeout() public onlyPlayers() {\n        require(gameState == GameState.Attack || gameState == GameState.Reveal);\n        if (block.number > lastUpdateHeight + 20) {\n            declareWinner(1-turn);\n        }\n    }\n    \n    /*\n    Allows the players to finalize the game after the period for fraud proof submission is over\n    */\n    function finishGame() public onlyPlayers() onlyState(GameState.WinClaimed) {\n        if (block.number > lastUpdateHeight + 20) {\n            gameState = GameState.Finished;\n        }\n    }\n    \n    //function setState(uint8 _turn, GameState _state, address _winner, bytes32[2][10][10] boardCommitments, \n    //        uint128[2][10][10] fieldRandomness, bool[2][10][10] shiptiles, bool[2][10][10] revealedtiles,\n    //        bytes32[2][10] shipCommitments, uint128[2][10] shipRandomness ,uint8[2][2][10] shipX, uint8[2][2][10] shipY, \n    //        bool[2][10] sunk, uint8 _lastX, uint8 _lastY) public  {\n    //    // TODO: hash and check that this corresponds to hash in state channel contract\n    //    turn = _turn;\n    //    gameState = _state;\n    //    winner = _winner;\n    //    lastX = _lastX;\n    //    lastY = _lastY;\n    //    for (uint8  i = 0; i<10; i++) {\n    //        for (uint8 j = 0; j<10;j++) {\n    //            boards[0].board[i][j].commitment = boardCommitments[0][i][j];\n    //            boards[0].board[i][j].randomness = fieldRandomness[0][i][j];\n    //            boards[0].board[i][j].ship = shiptiles[0][i][j];\n    //            boards[0].board[i][j].revealed = revealedtiles[0][i][j];\n    //            \n    //            boards[1].board[i][j].commitment = boardCommitments[1][i][j];\n    //            boards[1].board[i][j].randomness = fieldRandomness[1][i][j];\n    //            boards[1].board[i][j].ship = shiptiles[1][i][j];\n    //            boards[1].board[i][j].revealed = revealedtiles[1][i][j];\n    //        }\n    //        boards[0].ships[i].commitment = shipCommitments[0][i];\n    //        boards[0].ships[i].randomness = shipRandomness[0][i];\n    //        boards[0].ships[i].x1 = shipX[0][0][i];\n    //        boards[0].ships[i].y1 = shipY[0][0][i];\n    //        boards[0].ships[i].x2 = shipX[0][1][i];\n    //        boards[0].ships[i].y2 = shipY[0][1][i];\n    //        boards[0].ships[i].sunk = sunk[0][i];\n    //        \n    //        boards[1].ships[i].commitment = shipCommitments[1][i];\n    //        boards[1].ships[i].randomness = shipRandomness[1][i];\n    //        boards[1].ships[i].x1 = shipX[1][0][i];\n    //        boards[1].ships[i].y1 = shipY[1][0][i];\n    //        boards[1].ships[i].x2 = shipX[1][1][i];\n    //        boards[1].ships[i].y2 = shipY[1][1][i];\n    //        boards[1].ships[i].sunk = sunk[1][i];\n    //    }\n    //    \n    //}\n    \n    \n}\n",
  "sourcePath": "/home/surya/projects/bootcamp/statechannels/contracts/BattleShips.sol",
  "compiler": {
    "name": "solc",
    "version": "0.4.24+commit.e67f0147.Emscripten.clang"
  },
  "schemaVersion": "2.0.0",
  "updatedAt": "2018-07-17T17:28:06.890Z"
}