{
  "contractName": "SimplifiedSprites",
  "abi": [
    {
      "constant": true,
      "inputs": [],
      "name": "channel",
      "outputs": [
        {
          "name": "",
          "type": "address"
        }
      ],
      "payable": false,
      "stateMutability": "view",
      "type": "function"
    },
    {
      "constant": true,
      "inputs": [
        {
          "name": "",
          "type": "uint256"
        }
      ],
      "name": "playerslist",
      "outputs": [
        {
          "name": "",
          "type": "address"
        }
      ],
      "payable": false,
      "stateMutability": "view",
      "type": "function"
    },
    {
      "constant": true,
      "inputs": [],
      "name": "channelon",
      "outputs": [
        {
          "name": "",
          "type": "bool"
        }
      ],
      "payable": false,
      "stateMutability": "view",
      "type": "function"
    },
    {
      "constant": true,
      "inputs": [],
      "name": "channelinstance",
      "outputs": [
        {
          "name": "",
          "type": "uint256"
        }
      ],
      "payable": false,
      "stateMutability": "view",
      "type": "function"
    },
    {
      "constant": true,
      "inputs": [
        {
          "name": "",
          "type": "address"
        }
      ],
      "name": "players",
      "outputs": [
        {
          "name": "",
          "type": "bool"
        }
      ],
      "payable": false,
      "stateMutability": "view",
      "type": "function"
    },
    {
      "constant": true,
      "inputs": [
        {
          "name": "",
          "type": "address"
        }
      ],
      "name": "balance",
      "outputs": [
        {
          "name": "",
          "type": "uint256"
        }
      ],
      "payable": false,
      "stateMutability": "view",
      "type": "function"
    },
    {
      "inputs": [
        {
          "name": "_players",
          "type": "address[]"
        }
      ],
      "payable": false,
      "stateMutability": "nonpayable",
      "type": "constructor"
    },
    {
      "anonymous": false,
      "inputs": [
        {
          "indexed": false,
          "name": "receiver",
          "type": "address"
        },
        {
          "indexed": false,
          "name": "amount",
          "type": "uint256"
        }
      ],
      "name": "EventWithdrawal",
      "type": "event"
    },
    {
      "anonymous": false,
      "inputs": [
        {
          "indexed": false,
          "name": "receiver",
          "type": "address"
        },
        {
          "indexed": false,
          "name": "to",
          "type": "address"
        },
        {
          "indexed": false,
          "name": "amount",
          "type": "uint256"
        }
      ],
      "name": "EventTransfer",
      "type": "event"
    },
    {
      "anonymous": false,
      "inputs": [
        {
          "indexed": false,
          "name": "receiver",
          "type": "address"
        },
        {
          "indexed": false,
          "name": "amount",
          "type": "uint256"
        }
      ],
      "name": "EventDeposit",
      "type": "event"
    },
    {
      "constant": false,
      "inputs": [
        {
          "name": "_coins",
          "type": "uint256"
        }
      ],
      "name": "withdraw",
      "outputs": [
        {
          "name": "",
          "type": "bool"
        }
      ],
      "payable": false,
      "stateMutability": "nonpayable",
      "type": "function"
    },
    {
      "constant": false,
      "inputs": [
        {
          "name": "_to",
          "type": "address"
        },
        {
          "name": "_coins",
          "type": "uint256"
        }
      ],
      "name": "transfer",
      "outputs": [
        {
          "name": "",
          "type": "bool"
        }
      ],
      "payable": false,
      "stateMutability": "nonpayable",
      "type": "function"
    },
    {
      "constant": false,
      "inputs": [
        {
          "name": "_coins",
          "type": "uint256"
        }
      ],
      "name": "deposit",
      "outputs": [
        {
          "name": "",
          "type": "bool"
        }
      ],
      "payable": true,
      "stateMutability": "payable",
      "type": "function"
    },
    {
      "constant": false,
      "inputs": [
        {
          "name": "sigs",
          "type": "uint256[3]"
        },
        {
          "name": "_disputeTime",
          "type": "uint256"
        }
      ],
      "name": "createChannel",
      "outputs": [],
      "payable": false,
      "stateMutability": "nonpayable",
      "type": "function"
    },
    {
      "constant": false,
      "inputs": [
        {
          "name": "_balances",
          "type": "uint256[2]"
        },
        {
          "name": "r",
          "type": "uint256"
        }
      ],
      "name": "setState",
      "outputs": [],
      "payable": false,
      "stateMutability": "nonpayable",
      "type": "function"
    }
  ],
  "bytecode": "0x60806040523480156200001157600080fd5b5060405162002232380380620022328339810180604052810190808051820192919050505060016000808360008151811015156200004b57fe5b9060200190602002015173ffffffffffffffffffffffffffffffffffffffff1673ffffffffffffffffffffffffffffffffffffffff16815260200190815260200160002060006101000a81548160ff0219169083151502179055506001600080836001815181101515620000bb57fe5b9060200190602002015173ffffffffffffffffffffffffffffffffffffffff1673ffffffffffffffffffffffffffffffffffffffff16815260200190815260200160002060006101000a81548160ff02191690831515021790555080600290805190602001906200012e92919062000136565b50506200020b565b828054828255906000526020600020908101928215620001b2579160200282015b82811115620001b15782518260006101000a81548173ffffffffffffffffffffffffffffffffffffffff021916908373ffffffffffffffffffffffffffffffffffffffff1602179055509160200191906001019062000157565b5b509050620001c19190620001c5565b5090565b6200020891905b808211156200020457600081816101000a81549073ffffffffffffffffffffffffffffffffffffffff021916905550600101620001cc565b5090565b90565b612017806200021b6000396000f3006080604052600436106100af576000357c0100000000000000000000000000000000000000000000000000000000900463ffffffff16806324615d02146100b45780632e1a7d4d1461011057806359c0ca83146101555780637bbdb96e146101b1578063a9059cbb14610208578063aae148b21461026d578063b6b55f25146102da578063d2f5ed2b14610312578063e1dc4f6114610341578063e2eb41ff1461036c578063e3d670d7146103c7575b600080fd5b3480156100c057600080fd5b5061010e60048036038101908080606001906003806020026040519081016040528092919082600360200280828437820191505050505091929192908035906020019092919050505061041e565b005b34801561011c57600080fd5b5061013b600480360381019080803590602001909291905050506107af565b604051808215151515815260200191505060405180910390f35b34801561016157600080fd5b506101af6004803603810190808060400190600280602002604051908101604052809291908260026020028082843782019150505050509192919290803590602001909291905050506109a9565b005b3480156101bd57600080fd5b506101c6610e1a565b604051808273ffffffffffffffffffffffffffffffffffffffff1673ffffffffffffffffffffffffffffffffffffffff16815260200191505060405180910390f35b34801561021457600080fd5b50610253600480360381019080803573ffffffffffffffffffffffffffffffffffffffff16906020019092919080359060200190929190505050610e40565b604051808215151515815260200191505060405180910390f35b34801561027957600080fd5b506102986004803603810190808035906020019092919050505061114b565b604051808273ffffffffffffffffffffffffffffffffffffffff1673ffffffffffffffffffffffffffffffffffffffff16815260200191505060405180910390f35b6102f860048036038101908080359060200190929190505050611189565b604051808215151515815260200191505060405180910390f35b34801561031e57600080fd5b5061032761135b565b604051808215151515815260200191505060405180910390f35b34801561034d57600080fd5b5061035661136e565b6040518082815260200191505060405180910390f35b34801561037857600080fd5b506103ad600480360381019080803573ffffffffffffffffffffffffffffffffffffffff169060200190929190505050611374565b604051808215151515815260200191505060405180910390f35b3480156103d357600080fd5b50610408600480360381019080803573ffffffffffffffffffffffffffffffffffffffff169060200190929190505050611394565b6040518082815260200191505060405180910390f35b6000806000806000806000803373ffffffffffffffffffffffffffffffffffffffff1673ffffffffffffffffffffffffffffffffffffffff16815260200190815260200160002060009054906101000a900460ff16151561047e57600080fd5b600360149054906101000a900460ff1615151561049a57600080fd5b6001600454013060405180807f6372656174656368616e6e656c00000000000000000000000000000000000000815250600d018381526020018273ffffffffffffffffffffffffffffffffffffffff1673ffffffffffffffffffffffffffffffffffffffff166c010000000000000000000000000281526014019250505060405180910390209550600094505b60028054905085101561069157601b886000600388020160038110151561054a57fe5b6020020151019350876001600387020160038110151561056657fe5b60200201516001029250876002600387020160038110151561058457fe5b60200201516001029150600186858585604051600081526020016040526040518085600019166000191681526020018460ff1660ff1681526020018360001916600019168152602001826000191660001916815260200194505050505060206040516020810390808403906000865af1158015610605573d6000803e3d6000fd5b5050506020604051035190508073ffffffffffffffffffffffffffffffffffffffff1660028681548110151561063757fe5b9060005260206000200160009054906101000a900473ffffffffffffffffffffffffffffffffffffffff1673ffffffffffffffffffffffffffffffffffffffff1614151561068457600080fd5b8480600101955050610527565b6001600360146101000a81548160ff0219169083151502179055506002876106b76113ac565b8080602001838152602001828103825284818154815260200191508054801561073557602002820191906000526020600020905b8160009054906101000a900473ffffffffffffffffffffffffffffffffffffffff1673ffffffffffffffffffffffffffffffffffffffff16815260200190600101908083116106eb575b50509350505050604051809103906000f080158015610758573d6000803e3d6000fd5b50600360006101000a81548173ffffffffffffffffffffffffffffffffffffffff021916908373ffffffffffffffffffffffffffffffffffffffff1602179055506001600454016004819055505050505050505050565b6000600360149054906101000a900460ff16156107cb57600080fd5b6000803373ffffffffffffffffffffffffffffffffffffffff1673ffffffffffffffffffffffffffffffffffffffff16815260200190815260200160002060009054906101000a900460ff16151561082257600080fd5b81600160003373ffffffffffffffffffffffffffffffffffffffff1673ffffffffffffffffffffffffffffffffffffffff168152602001908152602001600020541015151561087057600080fd5b81600160003373ffffffffffffffffffffffffffffffffffffffff1673ffffffffffffffffffffffffffffffffffffffff1681526020019081526020016000205403600160003373ffffffffffffffffffffffffffffffffffffffff1673ffffffffffffffffffffffffffffffffffffffff168152602001908152602001600020819055503373ffffffffffffffffffffffffffffffffffffffff166108fc839081150290604051600060405180830381858888f19350505050151561093557600080fd5b7f25d83a5e39ccfb9154ae0ed20419f27af923f66f109197cf3991598b6ea7958a3383604051808373ffffffffffffffffffffffffffffffffffffffff1673ffffffffffffffffffffffffffffffffffffffff1681526020018281526020019250505060405180910390a160019050919050565b60008060008060003373ffffffffffffffffffffffffffffffffffffffff1673ffffffffffffffffffffffffffffffffffffffff16815260200190815260200160002060009054906101000a900460ff161515610a0557600080fd5b600360009054906101000a900473ffffffffffffffffffffffffffffffffffffffff1673ffffffffffffffffffffffffffffffffffffffff16637591e6276040518163ffffffff167c0100000000000000000000000000000000000000000000000000000000028152600401602060405180830381600087803b158015610a8b57600080fd5b505af1158015610a9f573d6000803e3d6000fd5b505050506040513d6020811015610ab557600080fd5b810190808051906020019092919050505092506000600360009054906101000a900473ffffffffffffffffffffffffffffffffffffffff1673ffffffffffffffffffffffffffffffffffffffff1663600c1f166040518163ffffffff167c0100000000000000000000000000000000000000000000000000000000028152600401602060405180830381600087803b158015610b5057600080fd5b505af1158015610b64573d6000803e3d6000fd5b505050506040513d6020811015610b7a57600080fd5b81019080805190602001909291905050501415610bf3576000600360146101000a81548160ff0219169083151502179055506000600360006101000a81548173ffffffffffffffffffffffffffffffffffffffff021916908373ffffffffffffffffffffffffffffffffffffffff160217905550610e13565b600285856040518083600260200280838360005b83811015610c22578082015181840152602081019050610c07565b50505050905001828152602001925050506020604051808303816000865af1158015610c52573d6000803e3d6000fd5b5050506040513d6020811015610c6757600080fd5b8101908080519060200190929190505050600019168360001916141515610c8d57600080fd5b6000600360006101000a81548173ffffffffffffffffffffffffffffffffffffffff021916908373ffffffffffffffffffffffffffffffffffffffff1602179055506000600360146101000a81548160ff02191690831515021790555060026000815481101515610cfa57fe5b9060005260206000200160009054906101000a900473ffffffffffffffffffffffffffffffffffffffff16915060026001815481101515610d3757fe5b9060005260206000200160009054906101000a900473ffffffffffffffffffffffffffffffffffffffff169050846000600281101515610d7357fe5b6020020151600160008473ffffffffffffffffffffffffffffffffffffffff1673ffffffffffffffffffffffffffffffffffffffff16815260200190815260200160002081905550846001600281101515610dca57fe5b6020020151600160008373ffffffffffffffffffffffffffffffffffffffff1673ffffffffffffffffffffffffffffffffffffffff168152602001908152602001600020819055505b5050505050565b600360009054906101000a900473ffffffffffffffffffffffffffffffffffffffff1681565b6000600360149054906101000a900460ff1615610e5c57600080fd5b6000803373ffffffffffffffffffffffffffffffffffffffff1673ffffffffffffffffffffffffffffffffffffffff16815260200190815260200160002060009054906101000a900460ff161515610eb357600080fd5b81600160003373ffffffffffffffffffffffffffffffffffffffff1673ffffffffffffffffffffffffffffffffffffffff1681526020019081526020016000205410151515610f0157600080fd5b6000808473ffffffffffffffffffffffffffffffffffffffff1673ffffffffffffffffffffffffffffffffffffffff16815260200190815260200160002060009054906101000a900460ff161515610f5857600080fd5b81600160003373ffffffffffffffffffffffffffffffffffffffff1673ffffffffffffffffffffffffffffffffffffffff1681526020019081526020016000205403600160003373ffffffffffffffffffffffffffffffffffffffff1673ffffffffffffffffffffffffffffffffffffffff1681526020019081526020016000208190555081600160008573ffffffffffffffffffffffffffffffffffffffff1673ffffffffffffffffffffffffffffffffffffffff1681526020019081526020016000205401600160008573ffffffffffffffffffffffffffffffffffffffff1673ffffffffffffffffffffffffffffffffffffffff168152602001908152602001600020819055503373ffffffffffffffffffffffffffffffffffffffff166108fc839081150290604051600060405180830381858888f1935050505015156110a257600080fd5b7f64af04e507117cfe690abc373ad27eb3c6a0b3202af0972ff3dc089e501e3a45338484604051808473ffffffffffffffffffffffffffffffffffffffff1673ffffffffffffffffffffffffffffffffffffffff1681526020018373ffffffffffffffffffffffffffffffffffffffff1673ffffffffffffffffffffffffffffffffffffffff168152602001828152602001935050505060405180910390a16001905092915050565b60028181548110151561115a57fe5b906000526020600020016000915054906101000a900473ffffffffffffffffffffffffffffffffffffffff1681565b6000600360149054906101000a900460ff16156111a557600080fd5b6000803373ffffffffffffffffffffffffffffffffffffffff1673ffffffffffffffffffffffffffffffffffffffff16815260200190815260200160002060009054906101000a900460ff1615156111fc57600080fd5b6000803373ffffffffffffffffffffffffffffffffffffffff1673ffffffffffffffffffffffffffffffffffffffff16815260200190815260200160002060009054906101000a900460ff16151561125357600080fd5b34821015151561126257600080fd5b81600160003373ffffffffffffffffffffffffffffffffffffffff1673ffffffffffffffffffffffffffffffffffffffff1681526020019081526020016000205401600160003373ffffffffffffffffffffffffffffffffffffffff1673ffffffffffffffffffffffffffffffffffffffff168152602001908152602001600020819055507f124b5543f55bba630805bceb7dfbb80725d894b6f91d0b714d1684be7e3078dd3334604051808373ffffffffffffffffffffffffffffffffffffffff1673ffffffffffffffffffffffffffffffffffffffff1681526020018281526020019250505060405180910390a160019050919050565b600360149054906101000a900460ff1681565b60045481565b60006020528060005260406000206000915054906101000a900460ff1681565b60016020528060005260406000206000915090505481565b604051610c2f806113bd8339019056006080604052600060045534801561001557600080fd5b50604051610c2f380380610c2f833981018060405281019080805182019291906020018051906020019092919050505060008090505b825181101561014c576000838281518110151561006457fe5b9060200190602002015190806001815401808255809150509060018203906000526020600020016000909192909190916101000a81548173ffffffffffffffffffffffffffffffffffffffff021916908373ffffffffffffffffffffffffffffffffffffffff16021790555050600180600085848151811015156100e457fe5b9060200190602002015173ffffffffffffffffffffffffffffffffffffffff1673ffffffffffffffffffffffffffffffffffffffff16815260200190815260200160002060006101000a81548160ff021916908315150217905550808060010191505061004b565b33600360006101000a81548173ffffffffffffffffffffffffffffffffffffffff021916908373ffffffffffffffffffffffffffffffffffffffff16021790555081600281905550505050610a89806101a66000396000f3006080604052600436106100db576000357c0100000000000000000000000000000000000000000000000000000000900463ffffffff16806302bf9e7f146100e0578063200d2ed21461015a5780632810e1d61461019357806329dcb0cf146101aa5780633f5de7ed146101d5578063445ddf3c14610253578063476e494f146102c057806352f91acf146102eb5780635bf31d4d14610302578063600c1f161461032d5780637591e627146103585780637e8cbcb31461038b57806382dbab73146103b65780638da5cb5b146103e9578063948b557a14610440575b600080fd5b3480156100ec57600080fd5b50610158600480360381019080803573ffffffffffffffffffffffffffffffffffffffff1690602001909291908035600019169060200190929190803560ff16906020019092919080356000191690602001909291908035600019169060200190929190505050610479565b005b34801561016657600080fd5b5061016f610540565b6040518082600281111561017f57fe5b60ff16815260200191505060405180910390f35b34801561019f57600080fd5b506101a8610553565b005b3480156101b657600080fd5b506101bf610699565b6040518082815260200191505060405180910390f35b3480156101e157600080fd5b506102516004803603810190808035906020019082018035906020019080806020026020016040519081016040528093929190818152602001838360200280828437820191505050505050919291929080359060200190929190803560001916906020019092919050505061069f565b005b34801561025f57600080fd5b5061027e60048036038101908080359060200190929190505050610884565b604051808273ffffffffffffffffffffffffffffffffffffffff1673ffffffffffffffffffffffffffffffffffffffff16815260200191505060405180910390f35b3480156102cc57600080fd5b506102d56108c2565b6040518082815260200191505060405180910390f35b3480156102f757600080fd5b506103006108c8565b005b34801561030e57600080fd5b50610317610989565b6040518082815260200191505060405180910390f35b34801561033957600080fd5b5061034261098f565b6040518082815260200191505060405180910390f35b34801561036457600080fd5b5061036d610999565b60405180826000191660001916815260200191505060405180910390f35b34801561039757600080fd5b506103a06109d6565b6040518082815260200191505060405180910390f35b3480156103c257600080fd5b506103cb6109dc565b60405180826000191660001916815260200191505060405180910390f35b3480156103f557600080fd5b506103fe6109e2565b604051808273ffffffffffffffffffffffffffffffffffffffff1673ffffffffffffffffffffffffffffffffffffffff16815260200191505060405180910390f35b34801561044c57600080fd5b50610455610a08565b60405180848152602001838152602001828152602001935050505060405180910390f35b6000600185858585604051600081526020016040526040518085600019166000191681526020018460ff1660ff1681526020018360001916600019168152602001826000191660001916815260200194505050505060206040516020810390808403906000865af11580156104f2573d6000803e3d6000fd5b5050506020604051035190508073ffffffffffffffffffffffffffffffffffffffff168673ffffffffffffffffffffffffffffffffffffffff1614151561053857600080fd5b505050505050565b600360149054906101000a900460ff1681565b600160003373ffffffffffffffffffffffffffffffffffffffff1673ffffffffffffffffffffffffffffffffffffffff16815260200190815260200160002060009054906101000a900460ff161561069257600654431115156105b557600080fd5b600160028111156105c257fe5b600360149054906101000a900460ff1660028111156105dd57fe5b1415156105e957600080fd5b6002600360146101000a81548160ff0219169083600281111561060857fe5b02179055506001600454016004819055506060604051908101604052806004548152602001600554815260200160065481525060086000820151816000015560208201518160010155604082015181600201559050506004547feeb070fbc21fd17ae1c4d37c3301119b2f323966527f586a868c876a9d3cb96060405160405180910390a2610697565b600080fd5b565b60065481565b6000806000806000600454871115156106b757600080fd5b600160028111156106c457fe5b600360149054906101000a900460ff1660028111156106df57fe5b1415156106eb57600080fd5b8587306040518084600019166000191681526020018381526020018273ffffffffffffffffffffffffffffffffffffffff1673ffffffffffffffffffffffffffffffffffffffff166c01000000000000000000000000028152601401935050505060405180910390209450600093505b60008054905084101561082457601b886000600387020181518110151561077e57fe5b90602001906020020151019250876001600386020181518110151561079f57fe5b90602001906020020151600102915087600260038602018151811015156107c257fe5b9060200190602002015160010290506108176000858154811015156107e357fe5b9060005260206000200160009054906101000a900473ffffffffffffffffffffffffffffffffffffffff1686858585610479565b838060010194505061075b565b8660048190555085600781600019169055506004547fbfed543fce167ec10d36e8be2db30aacbe1c6192efa6a7d0ee41c59a5b74cb6660075460405180826000191660001916815260200191505060405180910390a25050505050505050565b60008181548110151561089357fe5b906000526020600020016000915054906101000a900473ffffffffffffffffffffffffffffffffffffffff1681565b60045481565b600160003373ffffffffffffffffffffffffffffffffffffffff1673ffffffffffffffffffffffffffffffffffffffff16815260200190815260200160002060009054906101000a900460ff1615610982576000600281111561092757fe5b600360149054906101000a900460ff16600281111561094257fe5b14151561094e57600080fd5b6001600360146101000a81548160ff0219169083600281111561096d57fe5b02179055506005544201600581905550610987565b600080fd5b565b60025481565b6000600454905090565b60006002808111156109a757fe5b600360149054906101000a900460ff1660028111156109c257fe5b1415156109ce57600080fd5b600754905090565b60055481565b60075481565b600360009054906101000a900473ffffffffffffffffffffffffffffffffffffffff1681565b6000806000600280811115610a1957fe5b600360149054906101000a900460ff166002811115610a3457fe5b141515610a4057600080fd5b6008600001546008600101546008600201549250925092509091925600a165627a7a723058205b946b4fc06a9b2ff3b9840006b36b899fe8d87aa8810309d9fd7b182be8b92f0029a165627a7a723058206a16a139606448017595807e8ad1e9c41f7413d9939942f590dd8c901eff27920029",
  "source": "pragma solidity ^0.4.7;\n\n// Example implementation of a state channel contract for simplified Sprites. There are two contracts:\n// 1. State channel contract: Responsible for managing the dispute process and agreeing to the final authorised state hash\n// 2. Simplified Sprites (Application) contract: Normal contract, full of functionality. Additional functions to support \"channelisation\".\n//\n// Both parties can use simplifiedsprites.createChannel() to create the state channel (and its contract), and lock down all functionality in the application.\n// Both parties can execute the contract off-chain to authorise state transitions. For every state update, both parties sign the HASH of a state.\n// Eventually, the dispute process can be used to \"turn off\" the channel.\n// Dispute process has a fixed time period for both parties to send the latest state hash.\n// Once finished, the plaintext state is sent to the application contract (SimplifiedSprites). The application confirms this is the latest state\n// by hashing it, and comparing it with the \"final state hash\" stored in the state channel.\n// Once happy, it'll store plaintext state and re-activate all functionality in the state channel contract.\n//\n// This contract provides a practical demonstration of converting a smart contract into a \"state channel\" for optimistic scaling.\n//\n// Author: Patrick McCorry\n\n\n\n// State channel is responsible for handling the dispute process\n// - One party can trigger a dispute\n// - Fixed time period for all parties to send the \"latest agreed state\", determined by version\n// - To send state, any party can send latest state hash, version, and signature from each party in the channel.\n// - After time period, any party can resolve dispute. This closes channel and allows state hash to be retrieved.\n//\n// In this design - there can only be a single dispute in order to negotiate the latest state hash authorised off-chain.\n// Once StateChannel has accepted the final state hash, one party can publish the full state to the application contract.\n// The application contract (SimplifiedSprites) fetches state hash and confirms it is indeed the latesst state.\n// Afterwards, it stores the state, turns off the channel, and re-activates all functionality. All commands can be executed\n// on-chain to finish the contract.\ncontract StateChannel {\n    address[] public plist;\n    mapping (address => bool) pmap; // List of players in this channel!\n\n    enum Status { ON, DISPUTE, OFF }\n\n    // Configuration for state channel\n    uint256 public disputePeriod;  // Minimum time for dispute process (time all parties have to submit a command)\n    address public owner; // Application we are interested in.\n\n    // Current status for channel\n    Status public status;\n    uint256 public bestRound = 0;\n    uint256 public t_start;\n    uint256 public deadline;\n    bytes32 public hstate;\n\n    // List of disputes (i.e. successful state transitions on-chain)\n    struct Dispute {\n        uint256 round;\n        uint256 t_start;\n        uint256 t_settle;\n    }\n\n    Dispute dispute;\n\n    event EventDispute (uint256 indexed deadline);\n    event EventResolve (uint256 indexed bestround);\n    event EventEvidence (uint256 indexed bestround, bytes32 hstate);\n\n    modifier onlyowner { if(owner == msg.sender) _; else revert(); }\n    modifier onlyplayers { if (pmap[msg.sender]) _; else revert(); }\n\n\n    // The application creates this state channel and updates it with the list of players.\n    // Also sets a fixed dispute period.\n    constructor(address[] _plist, uint _disputePeriod) public {\n\n        for (uint i = 0; i < _plist.length; i++) {\n            plist.push(_plist[i]);\n            pmap[_plist[i]] = true;\n        }\n\n        owner = msg.sender;\n        disputePeriod = _disputePeriod;\n    }\n\n    // Trigger the dispute\n    function triggerDispute() onlyplayers public {\n\n        // Only accept a single command during a dispute\n        require( status == Status.ON );\n        status = Status.DISPUTE;\n        t_start = block.timestamp + t_start;\n\n    }\n\n    // Store a state hash that was authorised by all parties in the state channel\n    // This cancels any disputes in progress if it is associated with the largest nonce seen so far.\n    // ANYONE can relay a message! Important for PISA.\n    function setstate(uint256[] sigs, uint256 _i, bytes32 _hstate) public {\n        require(_i > bestRound);\n        require( status == Status.DISPUTE);\n\n        // Commitment to signed message for new state hash.\n        bytes32 h = keccak256(_hstate, _i, address(this));\n\n        // Check all parties in channel have signed it.\n        for (uint i = 0; i < plist.length; i++) {\n            uint8 V = uint8(sigs[i*3+0])+27;\n            bytes32 R = bytes32(sigs[i*3+1]);\n            bytes32 S = bytes32(sigs[i*3+2]);\n            verifySignature(plist[i], h, V, R, S);\n        }\n\n        // Store new state!\n        bestRound = _i;\n        hstate = _hstate;\n\n        // Tell the world about the new state!\n        emit EventEvidence(bestRound, hstate);\n    }\n\n    function resolve() onlyplayers public {\n        require(block.number > deadline); // Dispute process should be finished?\n        require(status == Status.DISPUTE);\n\n        // Return to normal operations and update bestRound\n        status = Status.OFF;\n        bestRound = bestRound + 1;\n\n        // Store dispute... due to successful on-chain transition\n        dispute = Dispute(bestRound, t_start, deadline);\n\n        emit EventResolve(bestRound);\n    }\n\n\n    // Fetch a dispute.\n    function getDispute() public view returns (uint256, uint256, uint256) {\n        require(status == Status.OFF);\n\n        return (dispute.round, dispute.t_start, dispute.t_settle);\n    }\n\n    // Helper function to verify signatures\n    function verifySignature(address pub, bytes32 h, uint8 v, bytes32 r, bytes32 s) public pure {\n        address _signer = ecrecover(h,v,r,s);\n        if (pub != _signer) revert();\n    }\n\n    // Fetch latest state hash, only fetchable once dispute process has concluded.\n    function getStateHash() public view returns (bytes32) {\n        require(status == Status.OFF);\n\n        return hstate;\n    }\n\n    // Latest round in contract\n    function latestClaim() public view returns(uint) {\n        return bestRound;\n    }\n}\n\n// Simplified Sprites - We can support deposits / withdrawals / transfers\n// Full sprites can handle \"asynchronous deposits\", where the deposit function can be called at any time; and off-chain state updates can take it into account.\n// Whereas here, all deposits must be processed via the dispute process.\n\ncontract SimplifiedSprites {\n    mapping (address => bool) public players;\n    mapping (address => uint) public balance; // List of players in this channel!\n    address[] public playerslist;\n\n\n    event EventWithdrawal(address receiver, uint amount);\n    event EventTransfer(address receiver, address to, uint amount);\n    event EventDeposit(address receiver, uint amount);\n\n    modifier onlyplayers { require(players[msg.sender]); _; }\n\n    // Set up the simplified Sprites Channel\n    constructor(address[] _players) public {\n\n        // Register players in the contract\n        players[_players[0]] = true;\n        players[_players[1]] = true;\n        playerslist = _players;\n\n        // Channel could be instantited here; or\n        // we can do it via \"createChannel()\". \n    }\n\n    // Allow a player to withdraw coins from the contract!\n    // NOTE: This function cannot be executed off-chain via the state channel due to its\n    // \"side-effects\". i.e. you cannot \"send\" coins off-chain.\n    // Think: If channel is ON - this should not work - needs to be client side?\n    function withdraw(uint _coins) public channel_turnedoff onlyplayers returns (bool) {\n\n        // Only accept a single command during a dispute\n        require(balance[msg.sender] >= _coins);\n\n        // Update state!\n        balance[msg.sender] = balance[msg.sender] - _coins;\n\n        // Sending must be successful to continue\n        require(msg.sender.send(_coins));\n\n        // Tell the world about withdrawal\n        emit EventWithdrawal(msg.sender, _coins);\n\n        return true;\n\n    }\n\n    // Allow a player to withdraw coins from the contract!\n    function transfer(address _to, uint _coins)  public channel_turnedoff onlyplayers returns (bool) {\n\n        // Only accept a single command during a dispute\n        require(balance[msg.sender] >= _coins);// Having a balance implies signer is in the contract\n        require(players[_to]); // Receiver should be in the contract\n\n        // Update state!\n        balance[msg.sender] = balance[msg.sender] - _coins;\n\n        // Transfer coins\n        balance[_to] = balance[_to] + _coins;\n\n        // Sending must be successful to continue\n        require(msg.sender.send(_coins));\n\n        // Tell the world about withdrawal\n        emit EventTransfer(msg.sender, _to, _coins);\n\n        return true;\n\n    }\n\n     // Sprites can support asynchronous deposits.\n     // Our example here cannot - which is why it is \"simplified\".\n     // NOTE: This function cannot be executed off-chain via the state channel due to its\n     // \"side-effects\". i.e. you cannot \"send\" coins off-chain.\n     // Think: If channel is ON - this should not work - needs to be client side?\n    function deposit(uint _coins) payable public channel_turnedoff onlyplayers returns (bool) {\n\n        // Only accept a single command during a dispute\n        require(players[msg.sender]);\n        require(_coins >= msg.value);\n\n        // Update state!\n        balance[msg.sender] = balance[msg.sender] + _coins;\n\n        // Tell the world about withdrawal\n        emit EventDeposit(msg.sender, msg.value);\n\n        return true;\n    }\n\n\n    /********************/\n    // State channel add-ons\n    // State channel variables (address, on/off) + modifiers.\n    // Create channel: Creates the state channel and locks down functionality Here\n    // Set state: Update contract's state and re-enable functionality - assuming dispute process is finished.\n    /********************/\n\n    // State channel information\n    address public channel;\n    bool public channelon;\n    uint public channelinstance;\n\n    modifier channel_turnedoff { if(channelon) revert(); else _; } // Checks if channel is turned off before executing\n\n    // Create state channel and lock down functions\n    function createChannel(uint256[3] sigs, uint _disputeTime) public onlyplayers {\n\n        // Channel cannot already be turned on!\n        require(!channelon);\n\n        // Commitment to signed message for new state hash.\n        bytes32 h = keccak256(\"createchannel\", channelinstance + 1, address(this));\n\n        // Check all parties in channel have signed it.\n        // Possible to save 1 signature; not worried about it for now.\n        for (uint i = 0; i < playerslist.length; i++) {\n            uint8 V = uint8(sigs[i*3+0])+27;\n            bytes32 R = bytes32(sigs[i*3+1]);\n            bytes32 S = bytes32(sigs[i*3+2]);\n\n            // Check signature for this player!\n            address _signer = ecrecover(h,V,R,S);\n            if (playerslist[i] != _signer) revert();\n          }\n\n          // Create channel\n          channelon = true;\n          channel = new StateChannel(playerslist, _disputeTime);\n          channelinstance = channelinstance + 1; // increment channel instance\n\n    }\n    // Update state\n    function setState(uint[2] _balances, uint r) public onlyplayers {\n\n        // Reverts if there is no hstate!\n        bytes32 hstate = StateChannel(channel).getStateHash();\n\n        // Check - was there any activity in the channel?\n        if(StateChannel(channel).latestClaim() == 0) {\n          channelon = false;\n          channel = 0;\n          return;\n        }\n\n        // OK there was activity - does this represent the committed state?\n        require(hstate == sha256(_balances, r));\n\n        // Awesome! Turn off state channel and update state\n        channel = 0; // Remove reference...\n        channelon = false; // Turn off\n\n        // We assume p1 = index 0, and p2 = index 1\n        address p1 = playerslist[0];\n        address p2 = playerslist[1];\n\n        // Just update their balance as normal\n        balance[p1] = _balances[0];\n        balance[p2] = _balances[1];\n    }\n}\n",
  "sourcePath": "/home/surya/projects/bootcamp/statechannels/contracts/channelexample.sol",
  "compiler": {
    "name": "solc",
    "version": "0.4.24+commit.e67f0147.Emscripten.clang"
  },
  "schemaVersion": "2.0.0",
  "updatedAt": "2018-07-17T02:15:40.859Z"
}